S01400004C4142335F4553434C41564F2E73726563A2
S11300000C9434000C943E000C943E000C943E007E
S11300100C943E000C943E000C943E000C943E0064
S11300200C943E000C943E000C943E000C943E0054
S11300300C943E000C943E000C943E000C943E0044
S11300400C943E000C943E000C943E000C943E0034
S11300500C943E000C943E000C943E000C943E0024
S11300600C943E000C943E0011241FBECFEFD8E048
S1130070DEBFCDBF0E948E000C94E2000C94000001
S11300808830C8F4ECE7F0E09081907F8F70892B82
S1130090808385E38A95F1F70000EAE7F0E0808148
S11300A08064808380917A0086FDFCCF8091780003
S11300B090917900089580E090E0089580E4809321
S11300C07C0087E880937A0080E00E9440000895D5
S11300D08BB908958FEF8AB91BB80895CF93C0E008
S11300E019C08FEF0E9468002FEF83EC99E0215034
S11300F080409040E1F700C0000080E00E9468006A
S11301002FEF83EC99E0215080409040E1F700C04C
S11301100000CF5FC33028F3CF9108950E94D6002A
S11301200E945E000E946A000E946E000E94DF002E
S11301308823A9F18EB5813019F0823049F02FC09F
S11301400E94DF008823E1F38EB50E94680027C077
S113015080E00E9440008C0181E00E944000EC019C
S11301600E94DF008823E1F31EBD0E94DF00882384
S1130170E1F30EBD0E94DF008823E1F3DEBD0E949F
S1130180DF008823E1F3CEBDC8018C0F9D1F969537
S1130190879596958795969587950E9468008FE335
S11301A09CE90197F1F700C00000C0CF84B18061E1
S11301B084B984B1837D84B980E48CBD08958DB500
S10B01C080780895F894FFCF44
S9030000FC
