S01400004C4142335F4D41455354524F2E7372656394
S11300000C9434000C9449000C9449000C9449005D
S11300100C9449000C9449000C9449000C94490038
S11300200C9449000C9449000C9449000C94490028
S11300300C9449000C9449000C9449000C94490018
S11300400C9449000C9449000C9449000C94490008
S11300500C9449000C9449000C9449000C944900F8
S11300600C9449000C94490011241FBECFEFD8E032
S1130070DEBFCDBF13E0A0E0B1E0EEEAFAE002C0DB
S113008005900D92AA35B107D9F70E94C8010C94C6
S113009055050C94000098B1907F98B99BB19F705E
S11300A09BB998B1282F2F70922B98B99BB1807F60
S11300B0892B8BB9089587B18F6087B98AB1806F16
S11300C08AB988B1807F88B98BB18F708BB9089554
S11300D080E091E00E9425028BE191E00E942502DC
S11300E080E491E00E94250284E791E00E942502C9
S11300F008951F93CF93DF9300D000D0CDB7DEB720
S113010019821A821B821C8280E991E00E942502D6
S113011010E016C00E9421028823E1F30E941A0213
S113012090ED980F9A3050F4E1E0F0E0EC0FFD1FF1
S1130130E10FF11D80830E94130201C011501F5F63
S1130140133040F38DEB92E00E942502498150E088
S11301504053510924E6249FC001259F900D11248A
S11301604A8150E09A0120533109B901660F771F83
S1130170A901440F551F440F551F440F551F9B01E0
S1130180240F351F280F391F8B8190E0C097820FF1
S1130190931F8F3F910519F010F08FEF90E00F90AF
S11301A00F900F900F90DF91CF911F910895CF93EF
S11301B082EC91E00E9425020E947900C82F0E94DF
S11301C04B0088ED91E00E9425028C2F90E00E9464
S11301D0320281EE91E00E94250285B18B7F85B9C0
S11301E085E38A95F1F7000081E00E94010285E32E
S11301F08A95F1F700008C2F0E94010285E38A950D
S1130200F1F7000085B1846085B98DEF91E00E941B
S113021025020E9421028823E1F30E941A02C82FBA
S11302200E9413028DEB92E00E942502C13711F067
S1130230C13511F6CF9108958F929F92AF92BF92DC
S1130240CF92DF92EF92FF920F931F93CF93DF939E
S11302508AE492E00E9425028AE692E00E94250246
S11302608FE892E00E94250285B18B7F85B925E352
S11302702A95F1F7000082E00E94010285E38A9545
S1130280F1F7000080E00E940102082F95E39A959F
S1130290F1F7000080E00E940102D82F25E32A959F
S11302A0F1F7000080E00E940102C82F85E38A95DF
S11302B0F1F7000080E00E94010295E39A95F1F7BE
S11302C0000095B1946095B910E0102F00270D2B14
S11302D0D0E0DC2FCC27C82B9801A8E8B3E10E941A
S11302E05C024B015C01072E7AE0B694A7949794C4
S11302F087947A95D1F7702D9E010E945C026B0160
S11303007C010B2EBAE0F694E794D794C794BA957F
S1130310D1F7B02D80EC92E00E942502C8010E9422
S1130320320287EC92E00E942502C4010E9432024C
S11303308AEC92E00E942502CE010E94320287ECF0
S113034092E00E942502C6010E94320287ED92E0EB
S11303500E9425020E942102882319F00E941A0299
S11303600AC02FEF87EA91E6215080409040E1F7E0
S113037000C0000079CFDF91CF911F910F91FF90C2
S1130380EF90DF90CF90BF90AF909F908F900895A3
S11303900E9407020E94F5010E945B008DED92E02D
S11303A00E94250281E093E00E9425020E946800D9
S11303B00E9421028823E1F30E941A02C82F0E949E
S11303C013028DEB92E00E942502C13319F0C2336F
S11303D021F006C00E94D700E9CF0E941C01E6CF9D
S11303E082E293E00E942502E1CF84B18C6284B959
S11303F084B18F7E84B981E58CBD85B1846085B973
S113040008958EBD0DB407FEFDCF8EB508951092EC
S1130410C50087E68093C40088E18093C10086E02C
S11304208093C20008959091C00095FFFCCF809303
S1130430C60008958091C0008823E4F78091C60027
S113044008958091C00080780895CF93DF93EC01E4
S113045003C021960E94130288818111FACFDF9193
S1130460CF9108950F931F93CF93DF9300D000D0C3
S113047000D0CDB7DEB79F938F9386E593E09F932B
S11304808F938E010F5F1F4F1F930F930E946B0278
S1130490C8010E9425020F900F900F900F900F90AB
S11304A00F9026960FB6F894DEBF0FBECDBFDF9136
S11304B0CF911F910F910895A29FB001B39FC001E6
S11304C0A39F700D811D1124911DB29F700D811D7C
S11304D01124911D0895AEE0B0E0E1E7F2E00C9440
S11304E02C050D891E8986E08C831A8309838FEF7E
S11304F09FE79E838D83AE01475E5F4F6F89788D42
S1130500CE0101960E948D02EF81F885E00FF11F64
S113051010822E96E4E00C944805ABE0B0E0E3E9E9
S1130520F2E00C941E056C017B018A01FC01178228
S11305301682838181FFCCC1CE0101963C01F60174
S11305409381F70193FD859193FF81917F01882326
S113055009F4BAC1853239F493FD859193FF8191F1
S11305607F01853229F4B60190E00E948404E7CF2C
S1130570912C212C312CFFE1F315D8F08B3279F03A
S113058038F4803279F08332A1F4232D20611DC028
S11305908D3261F0803369F4232D216016C0832DE0
S11305A08260382EE32DE4603E2E2AC0F32DF860DD
S11305B01DC037FC2DC020ED280F2A3040F08E32AC
S11305C0B9F436FC81C1232D2064322E19C036FEC5
S11305D006C08AE0989E200D1124922E11C0EAE0F4
S11305E02E9E200D1124222EF32DF0623F2E08C0E2
S11305F08C3621F4832D8068382E02C0883641F46D
S1130600F70193FD859193FF81917F018111B3CF10
S1130610982F9F7D9554933028F40C5F1F4F9FE3D0
S113062099830DC0833631F0833771F0833509F037
S113063059C021C0F801808189830E5F1F4F88242F
S11306408394912C530113C02801F2E04F0E511CE6
S1130650F801A080B18036FE03C0692D70E002C0AD
S11306606FEF7FEFC5010E9479044C018201F32DE5
S1130670FF773F2E16C0280122E0420E511CF801DC
S1130680A080B18036FE03C0692D70E002C06FEF18
S11306907FEFC5010E946E044C01F32DF0683F2EDC
S11306A0820133FC1BC0822D90E088169906B0F4B9
S11306B0B60180E290E00E9484042A94F4CFF5010C
S11306C037FC859137FE81915F01B60190E00E946D
S11306D0840421102A9421E0821A9108811491043F
S11306E071F7E8C0843611F0893641F5F80137FE18
S11306F007C060817181828193810C5F1F4F08C0A4
S113070060817181072E000C880B990B0E5F1F4FBF
S1130710F32DFF763F2E97FF09C090958095709535
S113072061957F4F8F4F9F4FF0683F2E2AE030E056
S1130730A3010E94C004882E861845C0853731F471
S1130740232D2F7EB22E2AE030E025C0932D997FF1
S1130750B92E8F36C1F018F4883579F0B5C08037DA
S113076019F0883721F0B0C0E92FE061BE2EB4FE45
S11307700DC0FB2DF460BF2E09C034FE0AC0292F22
S11307802660B22E06C028E030E005C020E130E04B
S113079002C020E132E0F801B7FE07C06081718138
S11307A0828193810C5F1F4F06C06081718180E05C
S11307B090E00E5F1F4FA3010E94C004882E86188C
S11307C0FB2DFF773F2E36FE0DC0232D2E7FA22E4C
S11307D0891458F434FE0BC032FC09C0832D8E7E7C
S11307E0A82E05C0B82CA32C03C0B82C01C0B92C6A
S11307F0A4FE0FC0FE01E80DF11D8081803321F4B9
S11308009A2D997EA92E09C0A2FE06C0B394B39472
S113081004C08A2D867809F0B394A3FC11C0A0FE0D
S113082006C0B21488F4280C922C9B180EC0B21483
S113083060F4B60180E290E00E948404B394F7CFA0
S1130840B21418F42B1802C0982C212CA4FE10C04A
S1130850B60180E390E00E948404A2FE17C0A1FCCC
S113086003C088E790E002C088E590E0B6010CC0C0
S11308708A2D867859F0A1FE02C08BE201C080E285
S1130880A7FC8DE2B60190E00E948404891438F438
S1130890B60180E390E00E9484049A94F7CF8A948E
S11308A0F301E80DF11D8081B60190E00E948404FB
S11308B08110F5CF222009F442CEB60180E290E007
S11308C00E9484042A94F6CFF6018681978102C09F
S11308D08FEF9FEF2B96E2E10C943A05FC01059013
S11308E0615070400110D8F7809590958E0F9F1F2E
S11308F00895FC016150704001900110D8F7809573
S113090090958E0F9F1F08950F931F93CF93DF939E
S1130910FB01238121FD03C08FEF9FEF2CC022FF39
S113092016C046815781248135814217530744F408
S1130930A081B1819D012F5F3F4F318320838C9330
S1130940268137812F5F3F4F3783268314C08B0165
S1130950EC01FB010084F185E02D0995892BE1F67A
S1130960D80116968D919C911797019617969C9392
S11309708E931697CE01DF91CF911F910F91089519
S1130980FA01AA27283051F1203181F1E8946F93BC
S11309906E7F6E5F7F4F8F4F9F4FAF4FB1E03ED062
S11309A0B4E03CD0670F781F891F9A1FA11D680F00
S11309B0791F8A1F911DA11D6A0F711D811D911D33
S11309C0A11D20D009F468943F912AE0269F1124A8
S11309D03019305D3193DEF6CF010895462F47700C
S11309E0405D4193B3E00FD0C9F7F6CF462F4F7067
S11309F0405D4A3318F0495D31FD4052419302D0C5
S1130A00A9F7EACFB4E0A69597958795779567956A
S1130A10BA95C9F700976105710508959B01AC016A
S1130A200A2E06945795479537952795BA95C9F791
S1130A30620F731F841F951FA01D08952F923F926C
S1130A404F925F926F927F928F929F92AF92BF92DA
S1130A50CF92DF92EF92FF920F931F93CF93DF9386
S1130A60CDB7DEB7CA1BDB0B0FB6F894DEBF0FBEE3
S1130A70CDBF09942A88398848885F846E847D8430
S1130A808C849B84AA84B984C884DF80EE80FD8032
S1130A900C811B81AA81B981CE0FD11D0FB6F894A8
S1110AA0DEBF0FBECDBFED010895F894FFCF69
S1130AAE0D0A3D3D3D204D454E55205052494E4375
S1130ABE4950414C203D3D3D0D0A00312E204D6FD5
S1130ACE646F204C4544732028656E7669617220EC
S1130ADE6E756D65726F20302D323535290D0A0015
S1130AEE322E204D6F646F20506F74656E63696F84
S1130AFE6D6574726F7320286C6565722076616CF7
S1130B0E6F7265732064656C206573636C61766FB8
S1130B1E290D0A0053656C656363696F6E65206FFA
S1130B2E7063696F6E202831206F2032293A2000BD
S1130B3E496E6772657365206E756D65726F20649C
S1130B4E6520332064696769746F732028656A3A77
S1130B5E203030372C203132332C20323535293A9F
S1130B6E20000D0A3D3D3D204D4F444F204C454441
S1130B7E53203D3D3D0D0A004E756D65726F3A2052
S1130B8E00202D20456E7669616E646F20616C20A5
S1130B9E6573636C61766F2E2E2E0D0A00456E768C
S1130BAE6961646F212050726573696F6E652027C9
S1130BBE7127207061726120766F6C766572206188
S1130BCE6C206D656E75206F206375616C7175692F
S1130BDE6572207465636C61207061726120636F4D
S1130BEE6E74696E7561723A20000D0A3D3D3D20AA
S1130BFE4D4F444F20504F54454E43494F4D45544D
S1130C0E524F53203D3D3D0D0A004C6579656E648F
S1130C1E6F2076616C6F726573206361646120323C
S1130C2E20736567756E646F732E2E2E0D0A005039
S1130C3E726573696F6E65206375616C7175696534
S1130C4E72207465636C61207061726120766F6CC2
S1130C5E76657220616C206D656E750D0A0D0A0045
S1130C6E504F54313A20002028006D5629207C2004
S1130C7E504F54323A20006D56290D0A003D3D3D29
S1130C8E204C41424F5241544F52494F20535049E8
S1130C9E202D204D41455354524F203D3D3D0D0ACC
S1130CAE0053697374656D6120696E69636961646B
S1130CBE6F20636F7272656374616D656E74650D1A
S1130CCE0A004F7063696F6E20696E76616C696499
S1130CDE612E20496E74656E7465206465206E7590
S1130CEE65766F2E0D0A0025733A2025642E253065
S10D0CFE3264560D0A00257500004B
S9030000FC
