:100000000C9434000C9449000C9449000C94490061
:100010000C9449000C9449000C9449000C9449003C
:100020000C9449000C9449000C9449000C9449002C
:100030000C9449000C9449000C9449000C9449001C
:100040000C9449000C9449000C9449000C9449000C
:100050000C9449000C9449000C9449000C944900FC
:100060000C9449000C94490011241FBECFEFD8E036
:10007000DEBFCDBF11E0A0E0B1E0E0E7FBE002C0F1
:1000800005900D92A43BB107D9F70E948C010C9406
:10009000B6050C9400008830C8F4ECE7F0E09081DD
:1000A000907F8F70892B808385E38A95F1F700001C
:1000B000EAE7F0E080818064808380917A0086FDA9
:1000C000FCCF8091780090917900089580E090E0D5
:1000D000089580E480937C0087E880937A0080E034
:1000E0000E944B0008959C01A8E8B3E10E94BD0264
:1000F000DC01CB01072E7AE0B695A79597958795F9
:100100007A95D1F7702D08951092C50087E68093F7
:10011000C40088E18093C10086E08093C200089506
:100120009091C00095FFFCCF8093C6000895809108
:10013000C0008823E4F78091C60008958091C00034
:1001400080780895CF93DF93EC0103C021960E943D
:10015000900088818111FACFDF91CF91089580FFBF
:1001600004C09BB194609BB903C09BB19B7F9BB9BA
:1001700081FF04C09BB198609BB903C09BB1977F7E
:100180009BB982FF04C09BB190619BB903C09BB136
:100190009F7E9BB983FF04C09BB190629BB903C053
:1001A0009BB19F7D9BB984FF04C09BB190649BB9B8
:1001B00003C09BB19F7B9BB985FF04C09BB1906836
:1001C0009BB903C09BB19F779BB986FF04C095B1D3
:1001D000946095B903C095B19B7F95B9882324F4A9
:1001E00085B1886085B9089585B1877F85B90895FF
:1001F00085B1826085B985E08A95F1F7000085B107
:100200008D7F85B987EC90E00197F1F700C0000081
:10021000089595B19E7F95B90E94AF000E94F800A5
:100220008FE39FE10197F1F700C00000089595B1B9
:10023000916095B90E94AF000E94F80087EC90E0B1
:100240000197F1F700C0000008958AB184608AB96F
:100250008AB188608AB98AB180618AB98AB18062BC
:100260008AB98AB180648AB98AB180688AB984B14E
:10027000846084B984B1886084B984B1836084B9AE
:100280002FEF89EF90E0215080409040E1F700C0CF
:10029000000080E30E9409018FE19EE40197F1F7DD
:1002A00000C0000080E30E9409018FE891E00197FF
:1002B000F1F700C0000080E30E94090188E30E947A
:1002C000090188E00E94090181E00E94090186E09D
:1002D0000E9409018CE00E9409010895CF93DF93E9
:1002E000EC0103C021960E94170188818111FACF89
:1002F000DF91CF9108958111605C862F80680E9404
:100300000901089581E00E9409018FE39FE10197AF
:10031000F1F700C000000895CF93DF93CDB7DEB7AB
:10032000E1970FB6F894DEBF0FBECDBF0E94250146
:100330000E9469000E9484000E94820161E080E0C6
:100340000E947B0180E091E00E946E0168E080E005
:100350000E947B0183E091E00E946E016EE080E0EC
:100360000E947B0186E091E00E946E0189E091E0AD
:100370000E94A20085E291E00E94A200412C512C33
:1003800080E00E944B008C0181E00E944B007C01C8
:10039000C8010E9473008C01C7010E9473005C01B8
:1003A00060E081E00E947B01A80156954795569533
:1003B0004795569547959A01A5ECB0E20E94BD027B
:1003C0009C01329522952F7023273F7023270F2EF3
:1003D000F8EE8F2EF3E09F2EF02D289DC001299D71
:1003E000900D389D900D11249801281B390BADEC10
:1003F000BCEC0E94BD026C01D694C794D694C794FD
:10040000D694C7949A01A5ECB0E20E94BD027C018B
:10041000F694E794F694E794F694E794F694E794C8
:10042000DF92CF92FF92EF920F2EF4E56F2EF1E064
:100430007F2EF02D7F926F928E010F5F1F4F1F93C3
:100440000F930E94CC02C8010E946E0167E081E018
:100450000E947B01A501569547955695479556955F
:1004600047959A01A5ECB0E20E94BD029C0132952D
:1004700022952F7023273F702327289DC001299D97
:10048000900D389D900D11249501281B390BADEC72
:10049000BCEC0E94BD024C0196948794969487947C
:1004A000969487949A01A5ECB0E20E94BD025C018B
:1004B000B694A794B694A794B694A794B694A79428
:1004C0009F928F92BF92AF927F926F921F930F93E2
:1004D0000E94CC02C8010E946E016EE081E00E9481
:1004E0007B015F924F928EE591E09F938F931F93D4
:1004F0000F930E94CC02C8010E946E015F924F923E
:100500009F928F92BF92AF92DF92CF92FF92EF9223
:1005100082E691E09F938F93075F1F4F1F930F9386
:100520000E94CC020FB6F894DEBF0FBECDBFC8014B
:100530000E94A2000E949E008823A9F00E949700BA
:100540008B3241F49FEF491A590A8FE891E00E94DB
:10055000A20009C08D3239F421E0421A510881EA23
:1005600091E00E94A2008FEF99E628E1815090402F
:100570002040E1F700C0000003CFA29FB001B39F6D
:10058000C001A39F700D811D1124911DB29F700D9C
:10059000811D1124911D0895AEE0B0E0E2EDF2E07E
:1005A0000C948D050D891E8986E08C831A8309833E
:1005B0008FEF9FE79E838D83AE01475E5F4F6F890C
:1005C000788DCE0101960E94EE02EF81F885E00F52
:1005D000F11F10822E96E4E00C94A905ABE0B0E088
:1005E000E4EFF2E00C947F056C017B018A01FC01D1
:1005F00017821682838181FFCCC1CE0101963C0116
:10060000F6019381F70193FD859193FF81917F011D
:10061000882309F4BAC1853239F493FD859193FF9B
:1006200081917F01853229F4B60190E00E94E504B2
:10063000E7CF912C212C312CFFE1F315D8F08B3230
:1006400079F038F4803279F08332A1F4232D2061DF
:100650001DC08D3261F0803369F4232D216016C0F6
:10066000832D8260382EE32DE4603E2E2AC0F32DC8
:10067000F8601DC037FC2DC020ED280F2A3040F057
:100680008E32B9F436FC81C1232D2064322E19C07C
:1006900036FE06C08AE0989E200D1124922E11C0CD
:1006A000EAE02E9E200D1124222EF32DF0623F2E23
:1006B00008C08C3621F4832D8068382E02C088361D
:1006C00041F4F70193FD859193FF81917F018111A1
:1006D000B3CF982F9F7D9554933028F40C5F1F4F14
:1006E0009FE399830DC0833631F0833771F08335F2
:1006F00009F059C021C0F801808189830E5F1F4F26
:1007000088248394912C530113C02801F2E04F0EEA
:10071000511CF801A080B18036FE03C0692D70E045
:1007200002C06FEF7FEFC5010E94DA044C01820125
:10073000F32DFF773F2E16C0280122E0420E511CF8
:10074000F801A080B18036FE03C0692D70E002C0C0
:100750006FEF7FEFC5010E94CF044C01F32DF068CD
:100760003F2E820133FC1BC0822D90E08816990633
:10077000B0F4B60180E290E00E94E5042A94F4CF40
:10078000F50137FC859137FE81915F01B60190E05C
:100790000E94E50421102A9421E0821A9108811414
:1007A000910471F7E8C0843611F0893641F5F801FB
:1007B00037FE07C060817181828193810C5F1F4F7A
:1007C00008C060817181072E000C880B990B0E5FA9
:1007D0001F4FF32DFF763F2E97FF09C09095809510
:1007E000709561957F4F8F4F9F4FF0683F2E2AE0A5
:1007F00030E0A3010E942105882E861845C0853768
:1008000031F4232D2F7EB22E2AE030E025C0932D27
:10081000997FB92E8F36C1F018F4883579F0B5C0BC
:10082000803719F0883721F0B0C0E92FE061BE2E83
:10083000B4FE0DC0FB2DF460BF2E09C034FE0AC00B
:10084000292F2660B22E06C028E030E005C020E146
:1008500030E002C020E132E0F801B7FE07C060815D
:100860007181828193810C5F1F4F06C0608171810D
:1008700080E090E00E5F1F4FA3010E942105882EAB
:100880008618FB2DFF773F2E36FE0DC0232D2E7FC1
:10089000A22E891458F434FE0BC032FC09C0832DFB
:1008A0008E7EA82E05C0B82CA32C03C0B82C01C086
:1008B000B92CA4FE0FC0FE01E80DF11D808180332C
:1008C00021F49A2D997EA92E09C0A2FE06C0B394E8
:1008D000B39404C08A2D867809F0B394A3FC11C0A8
:1008E000A0FE06C0B21488F4280C922C9B180EC0EF
:1008F000B21460F4B60180E290E00E94E504B39483
:10090000F7CFB21418F42B1802C0982C212CA4FE97
:1009100010C0B60180E390E00E94E504A2FE17C07B
:10092000A1FC03C088E790E002C088E590E0B60132
:100930000CC08A2D867859F0A1FE02C08BE201C05E
:1009400080E2A7FC8DE2B60190E00E94E5048914E4
:1009500038F4B60180E390E00E94E5049A94F7CF62
:100960008A94F301E80DF11D8081B60190E00E94A8
:10097000E5048110F5CF222009F442CEB60180E2D1
:1009800090E00E94E5042A94F6CFF60186819781D3
:1009900002C08FEF9FEF2B96E2E10C949B05FC01C8
:1009A0000590615070400110D8F7809590958E0F9A
:1009B0009F1F0895FC016150704001900110D8F70D
:1009C000809590958E0F9F1F08950F931F93CF933F
:1009D000DF93FB01238121FD03C08FEF9FEF2CC02C
:1009E00022FF16C046815781248135814217530763
:1009F00044F4A081B1819D012F5F3F4F318320835B
:100A00008C93268137812F5F3F4F3783268314C015
:100A10008B01EC01FB010084F185E02D0995892B08
:100A2000E1F6D80116968D919C911797019617962D
:100A30009C938E931697CE01DF91CF911F910F91CA
:100A40000895FA01AA27283051F1203181F1E89464
:100A50006F936E7F6E5F7F4F8F4F9F4FAF4FB1E0B1
:100A60003ED0B4E03CD0670F781F891F9A1FA11DAC
:100A7000680F791F8A1F911DA11D6A0F711D811DAD
:100A8000911DA11D20D009F468943F912AE0269F72
:100A900011243019305D3193DEF6CF010895462FD1
:100AA0004770405D4193B3E00FD0C9F7F6CF462FB2
:100AB0004F70405D4A3318F0495D31FD405241931B
:100AC00002D0A9F7EACFB4E0A695979587957795D8
:100AD0006795BA95C9F700976105710508959B015F
:100AE000AC010A2E06945795479537952795BA95E8
:100AF000C9F7620F731F841F951FA01D08952F92C1
:100B00003F924F925F926F927F928F929F92AF929D
:100B1000BF92CF92DF92EF92FF920F931F93CF93EA
:100B2000DF93CDB7DEB7CA1BDB0B0FB6F894DEBF81
:100B30000FBECDBF09942A88398848885F846E84A7
:100B40007D848C849B84AA84B984C884DF80EE80F1
:100B5000FD800C811B81AA81B981CE0FD11D0FB6FA
:100B6000F894DEBF0FBECDBFED010895F894FFCF1E
:100B70005031005032005333003D3D3D204C414246
:100B800032202D204C434420792055415254203DA1
:100B90003D3D0D0A00436F6D616E646F733A20270F
:100BA0002B2720696E6372656D656E7461722C20EF
:100BB000272D272064656372656D656E7461720D03
:100BC0000A0D0A002531642E253032645600253284
:100BD000640050313A202531642E2530326456208D
:100BE0002050323A202531642E25303264562020A0
:100BF00053333A202532642020202020200D00533A
:100C00003320696E6372656D656E7461646F0D0A81
:100C10000053332064656372656D656E7461646F43
:040C20000D0A0000B9
:00000001FF
