:100000000C945A000C9477000C9477000C947700B1
:100010000C9477000C9477000C9477000C94770084
:100020000C9477000C9477000C9477000C94770074
:100030000C9477000C9477000C9477000C94770064
:100040000C9477000C9477000C9477000C94770054
:100050000C9477000C9477000C9477000C94770044
:100060000C9477000C9477000C9477000C94770034
:100070000C9477000C9477000C9477000C94770024
:100080000C9477000C9477000C9477000C94770014
:100090000C9477000C9477000C9477000C94770004
:1000A0000C9477000C9477000C9477000C947700F4
:1000B0000C94770011241FBECFEFD8E0DEBFCDBF78
:1000C00011E0A0E0B1E0E0E1F0E102C005900D92A6
:1000D000A83DB107D9F721E0A8EDB1E001C01D921C
:1000E000AC3DB207E1F70E9439020C9406080C946B
:1000F000000089B18695869591E0892781700895E1
:1001000004C085E08A95F1F700000E9479008823F9
:10011000C1F390E040E050E0BA0119C08BB18860B3
:100120008BB985E08A95F1F70000440F551F661FD3
:10013000771F8BB1877F8BB985E08A95F1F7000037
:100140004A9B04C04F5F5F4F6F4F7F4F9F5F983157
:1001500028F390E00FC08BB188608BB985E08A9559
:10016000F1F700008BB1877F8BB985E08A95F1F7B5
:1001700000009F5F80910001981768F367FD7F6F13
:10018000CB01BA0108952F923F924F925F926F92E6
:100190007F928F929F92AF92BF92CF92DF92EF9217
:1001A000FF920F931F93CF93DF93282E512C612C36
:1001B000712C812C912CD0E0C0E0312C412C29C035
:1001C0000E9480006B017C01FF0CCC08DC2C7601C6
:1001D000262F372F482F592F6C2D7C2D8C2D9C2DA1
:1001E000A62CB72CC82CD92CED2EFC2E032D142DAB
:1001F0000E944A05622E732E842E952ED62FC72F6D
:10020000382E492E8FE99FE00197F1F700C00000DA
:1002100053945214A8F2A22CB12CC12CD12CE12C55
:10022000F12C00E010E0262D372D482D592D6D2F93
:100230007C2F832D942D0E947504622F732F842FA1
:10024000952FDF91CF911F910F91FF90EF90DF904D
:10025000CF90BF90AF909F908F907F906F905F9066
:100260004F903F902F900895823039F0833049F0BD
:10027000813059F4809300010BC082E0809300012B
:1002800007C083E08093000103C081E080930001F8
:100290000E94800008958AB18B7F8AB98AB18860F4
:1002A0008AB98BB1877F8BB92FEF81EE94E0215013
:1002B00080409040E1F700C0000081E00E943401DE
:1002C00008952F923F924F925F926F927F928F92FA
:1002D0009F92AF92BF92CF92DF92EF92FF920F93D5
:1002E0001F93CF93DF93282E512C612C712C812CDE
:1002F000912CD0E0C0E0312C412C29C00E9480001C
:100300006B017C01FF0CCC08DC2C7601262F372FEB
:10031000482F592F6C2D7C2D8C2D9C2DA62CB72C65
:10032000C82CD92CED2EFC2E032D142D0E944A052D
:10033000622E732E842E952ED62FC72F382E492E3F
:100340008FE39CE90197F1F700C000005394521429
:10035000A8F2A22CB12CC12CD12CE12CF12C00E064
:1003600010E0262D372D482D592D6D2F7C2F832DF4
:10037000942D0E9475042093D8013093D9014093A5
:10038000DA015093DB01DF91CF911F910F91FF9024
:10039000EF90DF90CF90BF90AF909F908F907F9025
:1003A0006F905F904F903F902F900895CF92DF9283
:1003B000EF92FF920E94C300C090D801D090D90163
:1003C000E090DA01F090DB016C197D098E099F093C
:1003D000C0900101D0900201E0900301F09004016F
:1003E0000E947A03A70196010E94D002FF90EF902D
:1003F000DF90CF9008956093010170930201809384
:1004000003019093040108950F931F93CF93DF93FB
:10041000CDB7DEB7A0970FB6F894DEBF0FBECDBF45
:1004200020E030E04AE754E40E9406040E944203C0
:100430007F936F9385E091E09F938F938E010F5F81
:100440001F4F1F930F930E945305C8010E94C302C0
:100450000F900F900F900F900F900F90A0960FB6E7
:10046000F894DEBF0FBECDBFDF91CF911F910F91EA
:100470000895CF93DF93CDB7DEB7A0970FB6F8946A
:10048000DEBF0FBECDBF0E94B0020E944B0182E1D1
:1004900091E00E94C30281E391E00E94C3022FEF2A
:1004A00083ED90E3215080409040E1F700C00000D0
:1004B00060E07AEB8BE599E40E94FB0184E491E033
:1004C0000E94C30280E691E00E94C3022FEF8BE7F7
:1004D00092E9215080409040E1F700C000008AE09E
:1004E0000E9461018CE891E00E94C30286EA91E0DB
:1004F0000E94C3022FEF83ED90E321508040904093
:10050000E1F700C000000E9479008823F9F085E03F
:100510000E94D6010E94040283E00E94C3009F93C0
:100520008F937F936F938BEC91E09F938F938E01CA
:100530000F5F1F4F1F930F930E945305C8010E9426
:10054000C3020FB6F894DEBF0FBECDBF9FEF29E602
:1005500088E1915020408040E1F700C00000D3CFF7
:100560001092C50087E68093C40088E18093C100A3
:1005700086E08093C20008959091C00095FFFCCF63
:100580008093C6000895CF93DF93EC0103C02196BA
:100590000E94BC0288818111FACFDF91CF9108952A
:1005A0000E94E4020C94CC030E94C50358F00E9400
:1005B000BE0340F029F45F3F29F00C94B5035111BC
:1005C0000C9400040C94BB030E94DD0368F3992390
:1005D000B1F3552391F3951B550BBB27AA2762173F
:1005E0007307840738F09F5F5F4F220F331F441F4C
:1005F000AA1FA9F335D00E2E3AF0E0E832D0915080
:100600005040E695001CCAF72BD0FE2F29D0660F6C
:10061000771F881FBB1F261737074807AB07B0E8AF
:1006200009F0BB0B802DBF01FF2793585F4F3AF0B5
:100630009E3F510578F00C94B5030C9400045F3F85
:10064000E4F3983ED4F3869577956795B795F7953B
:100650009F5FC9F7880F911D9695879597F9089523
:10066000E1E0660F771F881FBB1F621773078407BF
:10067000BA0720F0621B730B840BBA0BEE1F88F7CE
:10068000E09508950E9449036894B1110C94000408
:1006900008950E94E50388F09F5798F0B92F992795
:1006A000B751B0F0E1F0660F771F881F991F1AF05D
:1006B000BA95C9F714C0B13091F00E94FF03B1E0C0
:1006C00008950C94FF03672F782F8827B85F39F0BF
:1006D000B93FCCF3869577956795B395D9F73EF4F6
:1006E00090958095709561957F4F8F4F9F4F08959E
:1006F000E89409C097FB3EF49095809570956195BC
:100700007F4F8F4F9F4F9923A9F0F92F96E9BB2771
:100710009395F695879577956795B795F111F8CFED
:10072000FAF4BB0F11F460FF1BC06F5F7F4F8F4F58
:100730009F4F16C0882311F096E911C0772321F04E
:100740009EE8872F762F05C0662371F096E8862FE6
:1007500070E060E02AF09A95660F771F881FDAF73D
:10076000880F9695879597F9089597F99F6780E880
:1007700070E060E008959FEF80EC089500240A94F3
:100780001616170618060906089500240A9412166C
:100790001306140605060895092E0394000C11F49F
:1007A000882352F0BB0F40F4BF2B11F460FF04C04C
:1007B0006F5F7F4F8F4F9F4F089557FD9058440FA5
:1007C000551F59F05F3F71F04795880F97FB991FB0
:1007D00061F09F3F79F0879508951216130614066D
:1007E000551FF2CF4695F1DF08C0161617061806FA
:1007F000991FF1CF86957105610508940895E894D5
:10080000BB2766277727CB0197F908950E94190423
:100810000C94CC030E94BE0338F00E94C50320F064
:10082000952311F00C94B5030C94BB0311240C9484
:1008300000040E94DD0370F3959FC1F3950F50E013
:10084000551F629FF001729FBB27F00DB11D639F82
:10085000AA27F00DB11DAA1F649F6627B00DA11D28
:10086000661F829F2227B00DA11D621F739FB00DCE
:10087000A11D621F839FA00D611D221F749F33273E
:10088000A00D611D231F849F600D211D822F762FD7
:100890006A2F11249F5750409AF0F1F088234AF0B4
:1008A000EE0FFF1FBB1F661F771F881F9150504020
:1008B000A9F79E3F510580F00C94B5030C940004F9
:1008C0005F3FE4F3983ED4F3869577956795B795A7
:1008D000F795E7959F5FC1F7FE2B880F911D9695C1
:1008E000879597F90895689401C0E894F92FF12B42
:1008F00012F00C94A704A0E0B0E0E1E8F4E00C945E
:100900001905092E059422F40E940305112392F47F
:10091000F0E80F26FFEFE094F09400951095B09466
:10092000C094D094A194BF0ACF0ADF0AEF0AFF0A4D
:100930000F0B1F0B0E94B20407FC0E940305CDB7EA
:10094000DEB7ECE00C943505689401C0E8948F9212
:100950009F92CF93DF930E94B204DF91CF919F903B
:100960008F90089588249924F401E401B0E49F93C2
:10097000AA279A158B049C04ED05FE05CF05D00728
:10098000A10798F4AD2FDC2FCF2FFE2FE92D982C47
:10099000892E982F872F762F652F542F432F322F94
:1009A0002227B85031F7BF9127C01B2EBF91BB271C
:1009B000220F331F441F551F661F771F881F991F63
:1009C000881C991CEE1FFF1FCC1FDD1FAA1FBB1F19
:1009D0008A149B04EC05FD05CE05DF05A007B107D1
:1009E00048F08A189B08EC09FD09CE09DF09A00B25
:1009F000B10B21601A94E1F62EF49401AF01BE010F
:100A0000CD01000C08956095709580959095309576
:100A10004095509521953F4F4F4F5F4F6F4F7F4F00
:100A20008F4F9F4F08952F923F924F925F926F92F8
:100A30007F928F929F92AF92BF92CF92DF92EF926E
:100A4000FF920F931F93CF93DF93CDB7DEB7CA1BEF
:100A5000DB0B0FB6F894DEBF0FBECDBF09942A881A
:100A6000398848885F846E847D848C849B84AA84C2
:100A7000B984C884DF80EE80FD800C811B81AA814F
:100A8000B981CE0FD11D0FB6F894DEBF0FBECDBF1A
:100A9000ED0108952A0D3B1D4C1D5D1D6E1D7F1D32
:100AA000801F911F0895AEE0B0E0E9E5F5E00C94F9
:100AB00021050D891E8986E08C831A8309838FEFB7
:100AC0009FE79E838D83AE01475E5F4F6F89788D70
:100AD000CE0101960E947505EF81F885E00FF11FA8
:100AE00010822E96E4E00C943D05ABE0B0E0EBE71D
:100AF000F5E00C9413056C017B018A01FC0117825F
:100B00001682838181FFCCC1CE0101963C01F601A2
:100B10009381F70193FD859193FF81917F01882354
:100B200009F4BAC1853239F493FD859193FF81911F
:100B30007F01853229F4B60190E00E946C07E7CF6F
:100B4000912C212C312CFFE1F315D8F08B3279F068
:100B500038F4803279F08332A1F4232D20611DC056
:100B60008D3261F0803369F4232D216016C0832D0E
:100B70008260382EE32DE4603E2E2AC0F32DF8600B
:100B80001DC037FC2DC020ED280F2A3040F08E32DA
:100B9000B9F436FC81C1232D2064322E19C036FEF3
:100BA00006C08AE0989E200D1124922E11C0EAE022
:100BB0002E9E200D1124222EF32DF0623F2E08C010
:100BC0008C3621F4832D8068382E02C0883641F49B
:100BD000F70193FD859193FF81917F018111B3CF3F
:100BE000982F9F7D9554933028F40C5F1F4F9FE3FF
:100BF00099830DC0833631F0833771F0833509F066
:100C000059C021C0F801808189830E5F1F4F88245D
:100C10008394912C530113C02801F2E04F0E511C14
:100C2000F801A080B18036FE03C0692D70E002C0DB
:100C30006FEF7FEFC5010E9461074C018201F32D28
:100C4000FF773F2E16C0280122E0420E511CF8010A
:100C5000A080B18036FE03C0692D70E002C06FEF46
:100C60007FEFC5010E9456074C01F32DF0683F2E1F
:100C7000820133FC1BC0822D90E088169906B0F4E7
:100C8000B60180E290E00E946C072A94F4CFF5014F
:100C900037FC859137FE81915F01B60190E00E949B
:100CA0006C0721102A9421E0821A91088114910482
:100CB00071F7E8C0843611F0893641F5F80137FE46
:100CC00007C060817181828193810C5F1F4F08C0D2
:100CD00060817181072E000C880B990B0E5F1F4FEE
:100CE000F32DFF763F2E97FF09C090958095709564
:100CF00061957F4F8F4F9F4FF0683F2E2AE030E085
:100D0000A3010E94A807882E861845C0853731F4B4
:100D1000232D2F7EB22E2AE030E025C0932D997F1F
:100D2000B92E8F36C1F018F4883579F0B5C0803708
:100D300019F0883721F0B0C0E92FE061BE2EB4FE73
:100D40000DC0FB2DF460BF2E09C034FE0AC0292F50
:100D50002660B22E06C028E030E005C020E130E079
:100D600002C020E132E0F801B7FE07C06081718166
:100D7000828193810C5F1F4F06C06081718180E08A
:100D800090E00E5F1F4FA3010E94A807882E8618CF
:100D9000FB2DFF773F2E36FE0DC0232D2E7FA22E7A
:100DA000891458F434FE0BC032FC09C0832D8E7EAA
:100DB000A82E05C0B82CA32C03C0B82C01C0B92C98
:100DC000A4FE0FC0FE01E80DF11D8081803321F4E7
:100DD0009A2D997EA92E09C0A2FE06C0B394B394A1
:100DE00004C08A2D867809F0B394A3FC11C0A0FE3C
:100DF00006C0B21488F4280C922C9B180EC0B214B2
:100E000060F4B60180E290E00E946C07B394F7CFE3
:100E1000B21418F42B1802C0982C212CA4FE10C078
:100E2000B60180E390E00E946C07A2FE17C0A1FC0F
:100E300003C088E790E002C088E590E0B6010CC0EE
:100E40008A2D867859F0A1FE02C08BE201C080E2B3
:100E5000A7FC8DE2B60190E00E946C07891438F47B
:100E6000B60180E390E00E946C079A94F7CF8A94D1
:100E7000F301E80DF11D8081B60190E00E946C073E
:100E80008110F5CF222009F442CEB60180E290E035
:100E90000E946C072A94F6CFF6018681978102C0E2
:100EA0008FEF9FEF2B96E2E10C942F05FC0105904C
:100EB000615070400110D8F7809590958E0F9F1F5C
:100EC0000895FC016150704001900110D8F78095A1
:100ED00090958E0F9F1F08950F931F93CF93DF93CD
:100EE000FB01238121FD03C08FEF9FEF2CC022FF68
:100EF00016C046815781248135814217530744F437
:100F0000A081B1819D012F5F3F4F318320838C935E
:100F1000268137812F5F3F4F3783268314C08B0193
:100F2000EC01FB010084F185E02D0995892BE1F6A8
:100F3000D80116968D919C911797019617969C93C0
:100F40008E931697CE01DF91CF911F910F91089547
:100F5000FA01AA27283051F1203181F1E8946F93EA
:100F60006E7F6E5F7F4F8F4F9F4FAF4FB1E03ED090
:100F7000B4E03CD0670F781F891F9A1FA11D680F2E
:100F8000791F8A1F911DA11D6A0F711D811D911D61
:100F9000A11D20D009F468943F912AE0269F1124D6
:100FA0003019305D3193DEF6CF010895462F47703A
:100FB000405D4193B3E00FD0C9F7F6CF462F4F7095
:100FC000405D4A3318F0495D31FD4052419302D0F3
:100FD000A9F7EACFB4E0A695979587957795679599
:100FE000BA95C9F700976105710508959B01AC0199
:100FF0000A2E06945795479537952795BA95C9F7C0
:10100000620F731F841F951FA01D0895F894FFCFD2
:10101000010000803F5065736F3A20256420670D02
:101020000A003D3D3D2053454E534F52204445203C
:101030005045534F204858373131203D3D3D0D0A32
:1010400000496E696369616C697A616E646F2E2E06
:101050002E0D0A0043616C696272616E646F2063D9
:1010600065726F202874617261292E2E2E0D0A0080
:10107000417365677572617465206465207175657B
:10108000206E6F2068617961207065736F20656ED6
:10109000206C612063656C64610D0A0043616C69BA
:1010A00062726163696F6E20636F6D706C657461ED
:1010B0006461210D0A00436F6C6F6361207065737A
:1010C0006F20656E206C612063656C6461206465CF
:1010D0002063617267610D0A0D0A005261773A2040
:0810E000256C640D0A0D0A00E5
:00000001FF
