:100000000C9434000C9451000C9451000C94510049
:100010000C9451000C9451000C9451000C9451001C
:100020000C9451000C9451000C9451000C9451000C
:100030000C9451000C9451000C9451000C945100FC
:100040000C9451000C9451000C9451000C945100EC
:100050000C9451000C9451000C9451000C945100DC
:100060000C9451000C94510011241FBECFEFD8E026
:10007000DEBFCDBF11E0A0E0B1E0E2ECF2E002C0F3
:1000800005900D92AA30B107D9F721E0AAE0B1E0BE
:1000900001C01D92AD30B207E1F70E9402010C943D
:1000A0005F010C9400008A3030F4E82FF0E0E0505B
:1000B000FF4F80818BB908951BB8089595B1977C47
:1000C00095B998B19E7F98B9853008F084E088236F
:1000D00019F095B1986095B9823018F095B190619A
:1000E00095B9833018F095B1906295B9843019F4C0
:1000F00088B1816088B9089598B1917E98B98530AA
:1001000008F084E0882319F098B1926098B98230A1
:1001100018F098B1946098B9833018F098B198604D
:1001200098B9843019F488B1806188B908958091B4
:100130000C010E945E0080910B010E947C000895DA
:10014000CF93DF9310920A0110920C0110920B01D1
:1001500080E00E945E0080E00E947C0080E00E94BF
:1001600053002FEF85EA9EE0215080409040E1F758
:1001700000C00000C5E0D0E00DC08C2F0E945300ED
:100180002FEF83ED90E3215080409040E1F700C0D5
:1001900000002197DD238CF70E945C0081E08093B2
:1001A0000A01DF91CF91089523B1482F30E0082E46
:1001B00002C0359527950A94E2F720FD1FC02FEF66
:1001C00039EF60E0215030406040E1F700C00000AE
:1001D00023B130E0B90102C0759567958A95E2F7C1
:1001E00060FD0EC083B190E0042E02C09595879506
:1001F0000A94E2F780FFF6CF81E0089580E0089549
:1002000080E008958FE78AB984B1886384B987B1A3
:100210008F6187B984B1887F84B985B1876085B9DA
:1002200080E00E94D400882331F080910A0181117E
:1002300002C00E94A00080910A018823C1F081E0E1
:100240000E94D400882339F080910C01893018F481
:100250008F5F80930C0182E00E94D400882339F0E4
:1002600080910B01893018F48F5F80930B0180918E
:100270000C01893061F481E00E94530084E00E9407
:100280005E0080E00E947C0010920A0115C08091FF
:100290000B01893061F482E00E94530084E00E94E7
:1002A0007C0080E00E945E0010920A0105C08091EF
:1002B0000A0181110E945C000E949700B1CFF8945E
:0202C000FFCF6E
:0A02C2003F065B4F666D7D077F6FFE
:00000001FF
