S01E00004573636C61766F5F436F6C6F722028507275656261292E737265630B
S11300000C9434000C9451000C9451000C94DE00B8
S11300100C9451000C9451000C9451000C94050163
S11300200C9451000C9451000C9451000C94510008
S11300300C9451000C9451000C9451000C945100F8
S11300400C9451000C9451000C9451000C945100E8
S11300500C9451000C9451000C9451000C945100D8
S11300600C9451000C94510011241FBECFEFD8E022
S1130070DEBFCDBF11E0A0E0B1E0E0E9FBE002C0EB
S113008005900D92A23FB107D9F721E0A2EFB1E0AC
S113009001C01D92A63FB207E1F70E94E3010C9450
S11300A0C6050C9400001092C50087E68093C40036
S11300B088E18093C10086E08093C2000895909106
S11300C0C00095FFFCCF8093C6000895CF93DF93C3
S11300D0EC0103C021960E945F0088818111FACF50
S11300E0DF91CF91089584B1826084B982E88093CE
S11300F080008BE18093810087E893E190938700EF
S11301008093860089EF90E0909389008093880023
S11301100895853B08F084EB2DE7829FC0011124EC
S11301206AE570E00E94920267507F4F70938900E5
S11301306093880008958AB184658AB984B1816026
S113014084B984B18F7E84B98BB18F7B8BB985B12F
S11301508E7F85B91092B00087E08093B100E8E605
S1130160F0E0808181608083EBE6F0E08081806153
S113017080830895813069F028F0823089F08330DB
S1130180B1F008958BB18F7E8BB98BB18B7F8BB916
S113019008958BB18F7E8BB98BB184608BB9089530
S11301A08BB18B7F8BB98BB180618BB908958BB187
S11301B080618BB98BB184608BB908951F920F92C3
S11301C00FB60F9211242F933F938F939F9383B174
S11301D0982F907184FF0EC08091F20181110AC0A2
S11301E02091F4013091F5012F5F3F4F3093F501D9
S11301F02093F4019093F2019F918F913F912F915D
S11302000F900FBE0F901F9018951F920F920FB66C
S11302100F9211248F9381E08093F3011092B10027
S11302208F910F900FBE0F901F9018951092F501AB
S11302301092F4011092F3011092B20083EC8093B7
S1130240B300E0E7F0E080818260808387E0809300
S1130250B1008091F3018823E1F3E0E7F0E08081CD
S11302608D7F80838091F4019091F5019C01220F90
S1130270331F220F331F820F931F0895CF93DF93F1
S1130280EC0181E00E94BA0083EC99E00197F1F758
S113029000C000000E9416019983888383E00E94B5
S11302A0BA0083EC99E00197F1F700C000000E94C6
S11302B016019B838A8382E00E94BA0083EC99E052
S11302C00197F1F700C000000E9416019D838C8302
S11302D0DF91CF9108953F924F925F926F927F92F8
S11302E08F929F92AF92BF92CF92DF92EF92FF9242
S11302F00F931F93CF93DF93FC018081918102813F
S113030013816C01C00ED11EC481D581CC0EDD1EBB
S1130310E12CF12C24E6C216D104E104F104D0F15D
S11303200F2EF4E63F2EF02D389EB001399E700D4D
S1130330112480E090E0A70196010E94A6024901E1
S11303405A01309EB001319E700D112480E090E07E
S1130350A70196010E94A60229013A013C9EB00120
S11303603D9E700D112480E090E0A70196010E944B
S1130370A6022832310580F08AE0880E911C82168C
S1130380930660F48AE0480E511C4216530640F06E
S113039080E007C080E005C080E003C080E001C0C9
S11303A081E0DF91CF911F910F91FF90EF90DF904B
S11303B0CF90BF90AF909F908F907F906F905F9001
S11303C04F903F900895CF93DF93CDB7DEB7CA56D1
S11303D0D1090FB6F894DEBF0FBECDBF0E94530003
S11303E00E949B000E947300789480E091E00E9438
S11303F066008CE291E00E946600CE0101960E94A4
S11304003E0109811A81AB80BC806801CA0CDB1CE7
S11304108D809E80C80CD91CE12CF12CC114D10410
S1130420E104F10451F10F2EF4E63F2EF02D309E3D
S1130430B001319E700D112480E090E0A701960177
S11304400E94A602722E632E3A9CB0013B9C700D52
S1130450112480E090E0A70196010E94A602522E8A
S1130460432E389CB001399C700D112480E090E03B
S1130470A70196010E94A60206C020E030E0512C9C
S1130480412C712C612C1F921F92DF92CF923F93CB
S11304902F939F928F924F925F92BF92AF926F92DF
S11304A07F921F930F9383E591E09F938F938E0127
S11304B0095F1F4F1F930F930E94DC02C8010E9423
S11304C06600CE0101960E946B010FB6F894DEBF60
S11304D00FBECDBF8823C1F085E891E00E9466007D
S11304E08AE50E9489003FE78AE196E03150804026
S11304F09040E1F700C0000089EB91E00E946600A3
S113050080E00E94890004C08FED91E00E946600A3
S11305102FE936E881E0215030408040E1F700C007
S113052000006BCF97FB072E16F4009407D077FDDD
S113053009D00E94C80207FC05D03EF4909581952D
S11305409F4F0895709561957F4F0895A1E21A2EEB
S1130550AA1BBB1BFD010DC0AA1FBB1FEE1FFF1F63
S1130560A217B307E407F50720F0A21BB30BE40BB3
S1130570F50B661F771F881F991F1A9469F76095FA
S11305807095809590959B01AC01BD01CF010895B4
S1130590AA1BBB1B51E107C0AA1FBB1FA617B707A5
S11305A010F0A61BB70B881F991F5A95A9F78095C1
S11305B09095BC01CD010895AEE0B0E0E2EEF2E02A
S11305C00C949D050D891E8986E08C831A8309830A
S11305D08FEF9FE79E838D83AE01475E5F4F6F89E8
S11305E0788DCE0101960E94FE02EF81F885E00F1E
S11305F0F11F10822E96E4E00C94B905ABE0B0E054
S1130600E4E0F3E00C948F056C017B018A01FC01AA
S113061017821682838181FFCCC1CE0101963C01F1
S1130620F6019381F70193FD859193FF81917F01F9
S1130630882309F4BAC1853239F493FD859193FF77
S113064081917F01853229F4B60190E00E94F5047E
S1130650E7CF912C212C312CFFE1F315D8F08B320C
S113066079F038F4803279F08332A1F4232D2061BB
S11306701DC08D3261F0803369F4232D216016C0D2
S1130680832D8260382EE32DE4603E2E2AC0F32DA4
S1130690F8601DC037FC2DC020ED280F2A3040F033
S11306A08E32B9F436FC81C1232D2064322E19C058
S11306B036FE06C08AE0989E200D1124922E11C0A9
S11306C0EAE02E9E200D1124222EF32DF0623F2EFF
S11306D008C08C3621F4832D8068382E02C08836F9
S11306E041F4F70193FD859193FF81917F0181117D
S11306F0B3CF982F9F7D9554933028F40C5F1F4FF0
S11307009FE399830DC0833631F0833771F08335CD
S113071009F059C021C0F801808189830E5F1F4F01
S113072088248394912C530113C02801F2E04F0EC6
S1130730511CF801A080B18036FE03C0692D70E021
S113074002C06FEF7FEFC5010E94EA044C018201F1
S1130750F32DFF773F2E16C0280122E0420E511CD4
S1130760F801A080B18036FE03C0692D70E002C09C
S11307706FEF7FEFC5010E94DF044C01F32DF06899
S11307803F2E820133FC1BC0822D90E0881699060F
S1130790B0F4B60180E290E00E94F5042A94F4CF0C
S11307A0F50137FC859137FE81915F01B60190E038
S11307B00E94F50421102A9421E0821A91088114E0
S11307C0910471F7E8C0843611F0893641F5F801D7
S11307D037FE07C060817181828193810C5F1F4F56
S11307E008C060817181072E000C880B990B0E5F85
S11307F01F4FF32DFF763F2E97FF09C090958095EC
S1130800709561957F4F8F4F9F4FF0683F2E2AE080
S113081030E0A3010E943105882E861845C0853733
S113082031F4232D2F7EB22E2AE030E025C0932D03
S1130830997FB92E8F36C1F018F4883579F0B5C098
S1130840803719F0883721F0B0C0E92FE061BE2E5F
S1130850B4FE0DC0FB2DF460BF2E09C034FE0AC0E7
S1130860292F2660B22E06C028E030E005C020E122
S113087030E002C020E132E0F801B7FE07C0608139
S11308807181828193810C5F1F4F06C060817181E9
S113089080E090E00E5F1F4FA3010E943105882E77
S11308A08618FB2DFF773F2E36FE0DC0232D2E7F9D
S11308B0A22E891458F434FE0BC032FC09C0832DD7
S11308C08E7EA82E05C0B82CA32C03C0B82C01C062
S11308D0B92CA4FE0FC0FE01E80DF11D8081803308
S11308E021F49A2D997EA92E09C0A2FE06C0B394C4
S11308F0B39404C08A2D867809F0B394A3FC11C084
S1130900A0FE06C0B21488F4280C922C9B180EC0CA
S1130910B21460F4B60180E290E00E94F504B3944E
S1130920F7CFB21418F42B1802C0982C212CA4FE73
S113093010C0B60180E390E00E94F504A2FE17C047
S1130940A1FC03C088E790E002C088E590E0B6010E
S11309500CC08A2D867859F0A1FE02C08BE201C03A
S113096080E2A7FC8DE2B60190E00E94F5048914B0
S113097038F4B60180E390E00E94F5049A94F7CF2E
S11309808A94F301E80DF11D8081B60190E00E9484
S1130990F5048110F5CF222009F442CEB60180E29D
S11309A090E00E94F5042A94F6CFF601868197819F
S11309B002C08FEF9FEF2B96E2E10C94AB05FC0194
S11309C00590615070400110D8F7809590958E0F76
S11309D09F1F0895FC016150704001900110D8F7E9
S11309E0809590958E0F9F1F08950F931F93CF931B
S11309F0DF93FB01238121FD03C08FEF9FEF2CC008
S1130A0022FF16C04681578124813581421753073E
S1130A1044F4A081B1819D012F5F3F4F3183208336
S1130A208C93268137812F5F3F4F3783268314C0F1
S1130A308B01EC01FB010084F185E02D0995892BE4
S1130A40E1F6D80116968D919C9117970196179609
S1130A509C938E931697CE01DF91CF911F910F91A6
S1130A600895FA01AA27283051F1203181F1E89440
S1130A706F936E7F6E5F7F4F8F4F9F4FAF4FB1E08D
S1130A803ED0B4E03CD0670F781F891F9A1FA11D88
S1130A90680F791F8A1F911DA11D6A0F711D811D89
S1130AA0911DA11D20D009F468943F912AE0269F4E
S1130AB011243019305D3193DEF6CF010895462FAD
S1130AC04770405D4193B3E00FD0C9F7F6CF462F8E
S1130AD04F70405D4A3318F0495D31FD40524193F7
S1130AE002D0A9F7EACFB4E0A695979587957795B4
S1130AF06795BA95C9F700976105710508959B013B
S1130B00AC010A2E06945795479537952795BA95C3
S1130B10C9F7620F731F841F951FA01D08952F929C
S1130B203F924F925F926F927F928F929F92AF9279
S1130B30BF92CF92DF92EF92FF920F931F93CF93C6
S1130B40DF93CDB7DEB7CA1BDB0B0FB6F894DEBF5D
S1130B500FBECDBF09942A88398848885F846E8483
S1130B607D848C849B84AA84B984C884DF80EE80CD
S1130B70FD800C811B81AA81B981CE0FD11D0FB6D6
S1130B80F894DEBF0FBECDBFED010895F894FFCFFA
S1130B9053697374656D6120696E69636961646F1B
S1130BA0202D204465746563746F7220646520632E
S1130BB06F6C6F7220617A756C0D0A0053657276E2
S1130BC06F20656E20706F736963696F6E20696E44
S1130BD0696369616C20283020677261646F7329CE
S1130BE00D0A005247423A20523D257528257525A5
S1130BF0252920473D257528257525252920423D91
S1130C00257528257525252920546F74616C3D258B
S1130C106C750D0A00A1436F6C6F7220415A554CDC
S1130C202064657465637461646F21204D6F766917
S1130C30656E646F20736572766F20612039302091
S1130C40677261646F730D0A005265677265736140
S1130C506E646F20736572766F206120706F7369A4
S1130C6063696F6E20696E696369616C0D0A004384
S1130C706F6C6F72206E6F20657320617A756C0DD6
S1050C800A0064
S9030000FC
