S00C00004C4142362E7372656313
S11300000C9434000C9449000C9449000C9449005D
S11300100C9449000C9449000C9449000C94490038
S11300200C9449000C9449000C9449000C94490028
S11300300C9449000C9449000C9449000C94490018
S11300400C9449000C9449000C9449000C94490008
S11300500C9449000C9449000C9449000C944900F8
S11300600C9449000C94490011241FBECFEFD8E032
S1130070DEBFCDBF11E0A0E0B1E0E4E7F1E002C0F3
S113008005900D92A030B107D9F70E9452000C944C
S1130090B8000C94000087B1807C87B988B18F6365
S11300A088B908950E94A5000E944B0032990BC0A4
S11300B085E50E94B100329BFECF83ED90E301976A
S11300C0F1F700C0000031990BC084E40E94B10034
S11300D0319BFECF83ED90E30197F1F700C0000060
S11300E030990BC08CE40E94B100309BFECF83EDAD
S11300F090E30197F1F700C0000033990BC082E54B
S11301000E94B100339BFECF83ED90E30197F1F79A
S113011000C0000034990BC081E40E94B100349BFC
S1130120FECF83ED90E30197F1F700C0000035990D
S1130130BDCF82E40E94B100359BFECF83ED90E3F6
S11301400197F1F700C00000B1CF1092C50087E617
S11301508093C40088E18093C10086E08093C2004C
S113016008959091C00095FFFCCF8093C600089538
S1070170F894FFCF2D
S9030000FC
