S01E00004573636C61766F5F63617267612028507275656261292E737265630C
S11300000C9434000C94B5030C94CC030C94510060
S11300100C9451000C9407040C9451000C9451005E
S11300200C9451000C9451000C9451000C94510008
S11300300C9451000C9451000C9451000C945100F8
S11300400C9451000C9451000C9451000C945100E8
S11300500C9451000C9451000C9451000C945100D8
S11300600C9435020C94510011241FBECFEFD8E03C
S1130070DEBFCDBF11E0A0E0B1E0E6EBF1E102C0EC
S113008005900D92A630B107D9F721E0A6E0B1E0C2
S113009001C01D92A432B207E1F70E945C040C94E3
S11300A0D9080C94000086B1869591E08927817067
S11300B0089504C085E08A95F1F700000E9453007A
S11300C08823C1F390E040E050E0BA0119C088B140
S11300D0816088B985E08A95F1F70000440F551FC7
S11300E0661F771F88B18E7F88B985E08A95F1F7FE
S11300F00000319B04C04F5F5F4F6F4F7F4F9F5F86
S1130100983128F390E00FC088B1816088B985E008
S11301108A95F1F7000088B18E7F88B985E08A95C9
S1130120F1F700009F5F80910001981768F367FD65
S11301307F6FCB01BA0108952F923F924F925F9245
S11301406F927F928F929F92AF92BF92CF92DF92E3
S1130150EF92FF920F931F93CF93DF93282E512C8E
S1130160612C712C812C912CD0E0C0E0312C412CDD
S113017029C00E9459006B017C01FF0CCC08DC2CC7
S11301807601262F372F482F592F6C2D7C2D8C2D3F
S11301909C2DA62CB72CC82CD92CED2EFC2E032D6F
S11301A0142D0E94D008622E732E842E952ED62FE5
S11301B0C72F382E492E8FE99FE00197F1F700C031
S11301C0000053945214A8F2A22CB12CC12CD12CAF
S11301D0E12CF12C00E010E0262D372D482D592D6F
S11301E06D2F7C2F832D942D0E94FB07622F732F7C
S11301F0842F952FDF91CF911F910F91FF90EF9056
S1130200DF90CF90BF90AF909F908F907F906F9032
S11302105F904F903F902F900895823039F0833053
S113022049F0813059F4809300010BC082E080933F
S1130230000107C083E08093000103C081E0809344
S113024000010E945900089587B18D7F87B987B155
S1130250816087B988B18E7F88B92FEF81EE94E0F1
S1130260215080409040E1F700C0000081E00E94EE
S11302700D0108952F923F924F925F926F927F9259
S11302808F929F92AF92BF92CF92DF92EF92FF92A2
S11302900F931F93CF93DF93282E512C612C712C35
S11302A0812C912CD0E0C0E0312C412C29C00E943B
S11302B059006B017C01FF0CCC08DC2C7601262F45
S11302C0372F482F592F6C2D7C2D8C2D9C2DA62C2F
S11302D0B72CC82CD92CED2EFC2E032D142D0E94E6
S11302E0D008622E732E842E952ED62FC72F382E2B
S11302F0492E8FE39CE90197F1F700C00000539465
S11303005214A8F2A22CB12CC12CD12CE12CF12C2A
S113031000E010E0262D372D482D592D6D2F7C2F10
S1130320832D942D0E94FB0720930601309307012F
S11303304093080150930901DF91CF911F910F91D0
S1130340FF90EF90DF90CF90BF90AF909F908F90F1
S11303507F906F905F904F903F902F900895CF9231
S1130360DF92EF92FF920E949C00C0900601D09011
S11303700701E0900801F09009016C197D098E09CC
S11303809F09C0900101D0900201E0900301F09018
S113039004010E94D706A70196010E943406FF902B
S11303A0EF90DF90CF900895609301017093020164
S11303B080930301909304010895CF93DF9300D0B9
S11303C000D0CDB7DEB780911C01833561F128F4EC
S11303D08534C1F18035E1F535C0843599F187352F
S11303E0B9F58091130190911401A0911501B09178
S11303F0160189839A83AB83BC8320E00EC0822FCD
S113040090E0E1E0F0E0EC0FFD1FE80FF91F308110
S1130410FC01E05EFE4F30832F5F243080F384E0E4
S1130420809319011BC080911701E0E2F1E0808301
S113043080911F01818380911E01828383E08093D8
S113044019010CC081E0809320018093190106C03A
S11304508FEF8093200181E0809319010F900F901A
S11304600F900F90DF91CF9108951F920F920FB6C6
S11304700F9211242F933F934F935F936F937F9326
S11304808F939F93AF93BF93EF93FF938091B900A2
S1130490887F883A61F140F48038C1F0803A09F1EC
S11304A0803609F063C009C0803C09F459C0883C17
S11304B009F456C0883BD1F159C081E080931801FA
S11304C010921A0185EC8093BC0055C08091BB004A
S11304D080931C0181E080931D0185EC8093BC0016
S11304E04AC01092180185EC8093BC0044C082E09D
S11304F08093180110921A010E94DD018091190164
S1130500882369F0E0911A0181E08E0F80931A012B
S1130510F0E0E05EFE4F80818093BB0003C08FEF6C
S11305208093BB0085EC8093BC0025C090911A0198
S113053080911901981780F4E0911A0181E08E0FDF
S113054080931A01F0E0E05EFE4F80818093BB004F
S113055085EC8093BC000FC085E88093BC000BC081
S11305601092180185EC8093BC0005C0109218010C
S113057085EC8093BC00FF91EF91BF91AF919F9167
S11305808F917F916F915F914F913F912F910F9038
S11305900FBE0F901F90189580E68093BA0085E4F3
S11305A08093BC0010921D0110921C0110921B013B
S11305B01092180110921901089580911E01811161
S11305C006C08BB180628BB981E080931F010895CE
S11305D08BB18F7D8BB910921F01089580911D01FD
S11305E0882341F1F89480911C0110921D017894A4
S11305F0803589F0843519F08534E1F415C0809193
S11306001701811117C080911E01811113C081E06F
S113061080931701089580911701843059F0109246
S113062017010E94E802089581E080931E0184E08E
S113063080931701089560E070E080E094E40E94E4
S11306409005089560E070E0CB010E949005089544
S1130650CF92DF92EF92FF920E945300882309F415
S113066060C081E00E94AF0120E030E04AE754E43A
S11306700E948C076B017C0120E030E0A9010E94FC
S1130680870788230CF44DC020E030E04AE754E4A7
S1130690C701B6010E942F0618160CF442C0A70128
S11306A0960160910F017091100180911101909158
S11306B012010E94C30560930F017093100180938F
S11306C011019093120180910E018F5F80930E01AE
S11306D0833038F1F89460910E0170E080E090E08E
S11306E00E94D7069B01AC0160910F01709110012B
S11306F080911101909112010E94340660931301BC
S113070070931401809315019093160178941092BC
S11307100F01109210011092110110921201109207
S11307200E01FF90EF90DF90CF9008958AB1837E01
S11307308AB98BB18C618BB9E9E6F0E08081826083
S113074080838DB381608DBB8081886080838DB30D
S113075082608DBBE8E6F0E0808184608083EDE612
S1130760F0E080818061808308951F920F920FB61C
S11307700F9211248F9380911701813039F4809165
S11307801E01811103C082E0809317018F910F90A5
S11307900FBE0F901F9018951F920F920FB60F92D5
S11307A011242F938F939F93AF93BF9380910A014A
S11307B090910B01A0910C01B0910D01B095A09501
S11307C0909581959F4FAF4FBF4F853F9140A105B5
S11307D0B10598F080911701811107C080911E0125
S11307E0811103C081E08093170110920A011092D5
S11307F00B0110920C0110920D01BF91AF919F91CA
S11308008F912F910F900FBE0F901F9018951F92EC
S11308100F920FB60F9211248F934C9906C081E06A
S113082080931E0184E0809317018F910F900FBE77
S11308300F901F9018958AB180628AB90E94E802CD
S11308400E9415050E9422030E9424012FEF89E6CD
S113085098E1215080409040E1F700C0000060E042
S11308607AEB8BE599E40E94D4012FEF83ED90E3BA
S1130870215080409040E1F700C0000085E00E94D4
S11308803A012FEF89E698E1215080409040E1F74A
S113089000C000000E94CC020E94960310921E0128
S11308A01092170110921301109214011092150165
S11308B010921601789408950E941B0400E010E041
S11308C0C0E0D0E00E94EE022196C230D10520F0B3
S11308D00E942803C0E0D0E080911701823041F1EA
S11308E028F4882349F08130A9F08FC08330C1F106
S11308F0843009F46BC089C00E94E8022FEF80E7BE
S113090092E0215080409040E1F700C0000000E0F8
S113091010E07DC00E94DD022FEF80E792E02150BD
S113092080409040E1F700C0000000E010E06FC09C
S11309300E94E8020F5F1F4F0431110538F00E9436
S11309401B0383E08093170100E010E02FEF80E7A2
S113095092E0215080409040E1F700C0000057C071
S11309600F5F1F4F60911301709114018091150165
S11309709091160120E030E048E452E40E94870799
S113098088238CF00E9422032FEF89E698E12150FE
S113099080409040E1F700C0000081E0809317019F
S11309A000E010E009C0083C110530F00E94220369
S11309B01092170100E010E02FEF80E792E0215041
S11309C080409040E1F700C0000021C00E94E8028E
S11309D00E9422034C9B0FC02FEF81EE94E0215024
S11309E080409040E1F700C000004C9B04C010928E
S11309F01E01109217012FEF81EE94E021508040E8
S1130A009040E1F700C0000002C0109217018091ED
S1130A101E01882309F456CF80911701843009F40C
S1130A2051CF84E0809317014DCF84B1866084B99F
S1130A3010928500109284008FE39CE990938700C4
S1130A4080938600E0E8F0E080EA80838081826021
S1130A508083E1E8F0E088E18083808182608083A4
S1130A6008954F925F926F927F92AF92BF92CF920E
S1130A70DF92EF92FF920F931F93CF93DF93CDB743
S1130A80DEB728970FB6F894DEBF0FBECDBF29019D
S1130A903A01ED82FE820F8318870E94C2056983A2
S1130AA07A838B839C83A6019501698D7A8D8B8DC6
S1130AB09C8D0E94C2059B01AC0169817A818B8166
S1130AC09C810E948C0769837A838B839C83A30116
S1130AD09201C801B7010E94C2059B01AC01698162
S1130AE07A818B819C810E9434069B01AC01C601F2
S1130AF0B5010E94C30528960FB6F894DEBF0FBE59
S1130B00CDBFDF91CF911F910F91FF90EF90DF90B8
S1130B10CF90BF90AF907F906F905F904F9008956B
S1130B20AF92BF92CF92DF92EF92FF920F931F93F7
S1130B3025E42F9326E92F931F921F920F2EA12CA9
S1130B40B12CFAE7CF2EF4E4DF2EF02DE12CF12CBA
S1130B5000E814E420E030E0A9010E9431050F9080
S1130B600F900F900F900E94A606709389006093D7
S1130B7088001F910F91FF90EF90DF90CF90BF906E
S1130B80AF9008955058BB27AA270E94DA050C9409
S1130B904D070E943F0738F00E94460720F039F4C1
S1130BA09F3F19F426F40C943C070EF4E095E7FB00
S1130BB00C943607E92F0E945E0758F3BA176207B0
S1130BC073078407950720F079F4A6F50C94800741
S1130BD00EF4E0950B2EBA2FA02D0B01B901900154
S1130BE00C01CA01A0011124FF27591B99F0593F98
S1130BF050F4503E68F11A16F040A22F232F342FE0
S1130C004427585FF3CF469537952795A795F0402D
S1130C105395C9F77EF41F16BA0B620B730B840B42
S1130C20BAF09150A1F0FF0FBB1F661F771F881FFA
S1130C30C2F70EC0BA0F621F731F841F48F4879552
S1130C4077956795B795F7959E3F08F0B0CF939544
S1130C50880F08F09927EE0F9795879508950E94BD
S1130C60120708F481E008950E9448060C944D0789
S1130C700E94460758F00E943F0740F029F45F3F66
S1130C8029F00C94360751110C9481070C943C07FD
S1130C900E945E0768F39923B1F3552391F3951BE2
S1130CA0550BBB27AA2762177307840738F09F5F89
S1130CB05F4F220F331F441FAA1FA9F335D00E2EF6
S1130CC03AF0E0E832D091505040E695001CCAF763
S1130CD02BD0FE2F29D0660F771F881FBB1F261726
S1130CE037074807AB07B0E809F0BB0B802DBF01FD
S1130CF0FF2793585F4F3AF09E3F510578F00C94CC
S1130D0036070C9481075F3FE4F3983ED4F386954D
S1130D1077956795B795F7959F5FC9F7880F911DEC
S1130D209695879597F90895E1E0660F771F881FD8
S1130D30BB1F621773078407BA0720F0621B730B8B
S1130D40840BBA0BEE1F88F7E09508950E9466079E
S1130D5088F09F5798F0B92F9927B751B0F0E1F078
S1130D60660F771F881F991F1AF0BA95C9F714C028
S1130D70B13091F00E948007B1E008950C9480078F
S1130D80672F782F8827B85F39F0B93FCCF3869561
S1130D9077956795B395D9F73EF4909580957095BE
S1130DA061957F4F8F4F9F4F0895E89409C097FB3B
S1130DB03EF490958095709561957F4F8F4F9F4F2E
S1130DC09923A9F0F92F96E9BB279395F695879572
S1130DD077956795B795F111F8CFFAF4BB0F11F435
S1130DE060FF1BC06F5F7F4F8F4F9F4F16C08823DC
S1130DF011F096E911C0772321F09EE8872F762F12
S1130E0005C0662371F096E8862F70E060E02AF052
S1130E109A95660F771F881FDAF7880F969587953E
S1130E2097F90895990F0008550FAA0BE0E8FEEF13
S1130E3016161706E807F907C0F012161306E4079A
S1130E40F50798F0621B730B840B950B39F40A2693
S1130E5061F0232B242B252B21F408950A2609F471
S1130E60A140A6958FEF811D811D089597F99F6775
S1130E7080E870E060E008959FEF80EC089500241E
S1130E800A941616170618060906089500240A94EB
S1130E9012161306140605060895092E0394000C71
S1130EA011F4882352F0BB0F40F4BF2B11F460FF00
S1130EB004C06F5F7F4F8F4F9F4F089557FD905829
S1130EC0440F551F59F05F3F71F04795880F97FB0A
S1130ED0991F61F09F3F79F08795089512161306C4
S1130EE01406551FF2CF4695F1DF08C016161706F3
S1130EF01806991FF1CF8695710561050894089528
S1130F00E894BB2766277727CB0197F908950E94B9
S1130F10120708F48FEF08950E949F070C944D0761
S1130F200E943F0738F00E94460720F0952311F0F5
S1130F300C9436070C943C0711240C9481070E94EE
S1130F405E0770F3959FC1F3950F50E0551F629FA4
S1130F50F001729FBB27F00DB11D639FAA27F00D0E
S1130F60B11DAA1F649F6627B00DA11D661F829F35
S1130F702227B00DA11D621F739FB00DA11D621F1A
S1130F80839FA00D611D221F749F3327A00D611D37
S1130F90231F849F600D211D822F762F6A2F112419
S1130FA09F5750409AF0F1F088234AF0EE0FFF1F4C
S1130FB0BB1F661F771F881F91505040A9F79E3FA3
S1130FC0510580F00C9436070C9481075F3FE4F3DD
S1130FD0983ED4F3869577956795B795F795E795F9
S1130FE09F5FC1F7FE2B880F911D9695879597F902
S1130FF00895689401C0E894F92FF12B12F00C9431
S11310002D08A0E0B0E0E7E0F8E00C949F08092E7A
S1131010059422F40E948908112392F4F0E80F2623
S1131020FFEFE094F09400951095B094C094D094A0
S1131030A194BF0ACF0ADF0AEF0AFF0A0F0B1F0BA6
S11310400E94380807FC0E948908CDB7DEB7ECE09F
S11310500C94BB08689401C0E8948F929F92CF933C
S1131060DF930E943808DF91CF919F908F9008956D
S113107088249924F401E401B0E49F93AA279A15E3
S11310808B049C04ED05FE05CF05D007A10798F459
S1131090AD2FDC2FCF2FFE2FE92D982C892E982FE2
S11310A0872F762F652F542F432F322F2227B850A6
S11310B031F7BF9127C01B2EBF91BB27220F331FCF
S11310C0441F551F661F771F881F991F881C991C72
S11310D0EE1FFF1FCC1FDD1FAA1FBB1F8A149B041A
S11310E0EC05FD05CE05DF05A007B10748F08A1819
S11310F09B08EC09FD09CE09DF09A00BB10B2160A7
S11311001A94E1F62EF49401AF01BE01CD01000C56
S1131110089560957095809590953095409550957B
S113112021953F4F4F4F5F4F6F4F7F4F8F4F9F4FD3
S113113008952F923F924F925F926F927F928F9277
S11311409F92AF92BF92CF92DF92EF92FF920F9352
S11311501F93CF93DF93CDB7DEB7CA1BDB0B0FB65C
S1131160F894DEBF0FBECDBF09942A883988488819
S11311705F846E847D848C849B84AA84B984C884AF
S1131180DF80EE80FD800C811B81AA81B981CE0FA6
S1131190D11D0FB6F894DEBF0FBECDBFED0108958B
S11311A02A0D3B1D4C1D5D1D6E1D7F1D801F911F53
S10911B00895F894FFCF3E
S10911B6010000803F006F
S9030000FC
