S00C00004C4142332E7372656316
S11300000C9434000C9446000C9446000C94460066
S11300100C9446000C9446000C9446000C94460044
S11300200C9446000C9446000C9446000C94460034
S11300300C9446000C9446000C9446000C94460024
S11300400C9446000C947D000C9446000C944600DD
S11300500C9446000C9446000C9446000C94460004
S11300600C9446000C94460011241FBECFEFD8E038
S1130070DEBFCDBF21E0A0E0B1E001C01D92A630FB
S1130080B207E1F70E94CC000C9401010C9400002B
S11300908830C8F4ECE7F0E09081907F8F70892B72
S11300A0808385E38A95F1F70000EAE7F0E0808138
S11300B08064808380917A0086FDFCCF80917800F3
S11300C090917900089580E090E0089580E4809311
S11300D07C0087E880937A0080E00E9448000895BD
S11300E084B1806184B984B1837D84B980EC8CBD92
S11300F085B1846085B91EBC08951F920F920FB616
S11301000F9211248F939F938EB51A993BC09091AF
S11301100001911102C0809300018091000182309E
S113012089F018F4813031F025C0833099F084309F
S1130130C9F020C080910401909105019EBD1092E8
S113014000011CC080910401909105018EBD1092A4
S1130150000114C080910201909103019EBD109290
S113016000010CC080910201909103018EBD109298
S1130170000104C08FEF8EBD1092000181E08093D6
S1130180010103C0109200011EBC9F918F910F903A
S11301900FBE0F901F9018950E9466000E94700079
S11301A078948AB180688AB98BB18F778BB980E0F3
S11301B00E944800909305018093040181E00E940D
S11301C048009093030180930201809101018823E8
S11301D071F08BB180588BB9109201012FEF80E739
S11301E092E0215080409040E1F700C000002FEFE2
S11301F089EF90E0215080409040E1F700C000007A
S1090200D6CFF894FFCFF5
S9030000FC
