S01600004D61657374726F5F5072756562612E7372656375
S11300000C9434000C9451000C9451000C94510045
S11300100C9451000C9451000C9451000C94510018
S11300200C9451000C9451000C9451000C94510008
S11300300C9451000C9451000C9451000C945100F8
S11300400C9451000C9451000C9451000C945100E8
S11300500C9451000C9451000C9451000C945100D8
S11300600C9451000C94510011241FBECFEFD8E022
S1130070DEBFCDBF11E0A0E0B1E0ECE0F9E102C0E9
S113008005900D92A63EB107D9F722E0A6EEB1E0A5
S113009001C01D92AA30B207E1F70E9460060C94D9
S11300A0840C0C940000BC0120E030E01CC083E010
S11300B08A95F1F700002F5F3F4F94E6969FA001C9
S11300C0979F500D11242417350798F4293883E19C
S11300D0380748F0349B02C0359905C081E080930D
S11300E0E60180E008959091BC00992304F781E033
S11300F0089580E008959B01AC0187B18F7C87B996
S113010088B1806388B960E074E284EF90E00E9473
S11301106909DA01C9014097A109B109B695A79502
S113012097958795282F8A3008F42AE02093B80001
S11301301092B90084E88093BC001092E7011092F9
S1130140E60183EC99E00197F1F700C000000895FF
S11301501092BC0087B1806287B987B18F7E87B95E
S113016090E011C088B1806288B983E08A95F1F784
S1130170000088B18F7D88B983E08A95F1F700008B
S1130180349903C09F5F993068F387B18F7C87B936
S113019083EC99E00197F1F700C0000060EA76E88B
S11301A081E090E00E947B001092E6011092E7014A
S11301B0089584E98093BC0088EE93E005C023E0B1
S11301C02A95F1F7000001972091BC0024FF02C09A
S11301D00097A9F7892B19F481E08093E60180E167
S11301E08A95F1F700C0089584EC8093BC0084E6FE
S11301F090E00E945300882319F08091BB00089579
S11302008FEF089584E88093BC0084E690E00E9418
S11302105300882319F08091BB0008958FEF08954F
S11302208091B900887F0895CF93C82F8091E6010B
S113023081110E94A80084EA8093BC0084E690E0C7
S11302400E94530081110EC08091E7018F5F80935B
S1130250E7018091E701843030F181E08093E60189
S11302608FEF22C00E941001883011F08031E1F438
S1130270C093BB0084E88093BC0084E690E00E94B5
S11302805300811107C08091E7018F5F8093E701DC
S11302908FEF0AC00E941001883111F0803421F4DC
S11302A01092E70101C08FEFCF9108958093BB00B6
S11302B084E88093BC0084E690E00E94530081119E
S11302C007C08091E7018F5F8093E7018FEF089566
S11302D00E94100108950F931F93CF93DF93D82F9B
S11302E0162F042FC0E032C08D2F880F0E941401F6
S11302F0883151F00E94D900CF5F83EC99E00197D7
S1130300F1F700C0000022C0812F0E9456018832FC
S113031051F00E94D900CF5F83EC99E00197F1F787
S113032000C0000013C0802F0E945601883251F093
S11303300E94D900CF5F83EC99E00197F1F700C0E8
S1130340000004C00E94D90080E003C0C33060F202
S113035081E0DF91CF911F910F9108951F93CF9367
S1130360DF93D82F162FC0E039C08D2F880F0E943D
S11303701401883151F00E94D900CF5F83EC99E0D9
S11303800197F1F700C0000029C0812F0E94560197
S1130390883251F00E94D900CF5F83EC99E0019735
S11303A0F1F700C000001AC08D2F90E0880F991F4C
S11303B081600E941401803451F00E94D900CF5F03
S11303C083EC99E00197F1F700C0000007C00E9498
S11303D00201C82F0E94D9008C2F03C0C33028F219
S11303E08FEFDF91CF911F910895DF92EF92FF92EB
S11303F00F931F93CF93DF93222309F47BC04115FE
S1130400510509F479C0F22E8A01D62EE82ED0E0E7
S11304106CC08E2D880F0E941401883151F00E9407
S1130420D900DF5F83EC99E00197F1F700C0000089
S11304305CC08D2D0E945601883251F00E94D90073
S1130440DF5FE3ECF9E03197F1F700C000004DC045
S11304508E2D90E0880F991F81600E9414018034D2
S113046099F10E94D900DF5F83EC99E00197F1F7DD
S113047000C000003AC0AC2FB0E0EF2DF0E031979F
S1130480AE17BF0739F40E940201F801EC0FF11D09
S1130490808306C00E94F400F801EC0FF11D8083F4
S11304A04C2F50E0F801E40FF51F80818F3F51F489
S11304B0CC2341F0319780818F3F21F00E94D900F5
S11304C0DF5F05C0CF5F01C0C0E0CF15A0F20E947E
S11304D0D900DD2399F0F80180818F3F89F483EC02
S11304E099E00197F1F700C00000D33008F491CFF0
S11304F080E007C080E005C080E003C08F2D01C00C
S11305008F2DDF91CF911F910F91FF90EF90DF908E
S11305100895349B04C0359904C081E0089581E0B6
S1130520089580E0089581E08093E6010E94A80088
S1130530089595B19B7F95B99BB1282F30E0220F88
S1130540331F220F331F9370292B2BB995B19C7F36
S11305508295869586958370892B85B985B1886047
S113056085B98FE99FE00197F1F700C0000085B1DC
S1130570877F85B98FE99FE00197F1F700C00000FC
S113058008958AB18C6F8AB984B18F6084B98FE57C
S11305909AEE0197F1F700C0000088E30E949902E7
S11305A08FE19EE40197F1F700C000008CE00E9407
S11305B099028FE39FE10197F1F700C0000086E004
S11305C00E9499028FE39FE10197F1F700C00000B8
S11305D081E00E9499028FE39FE10197F1F700C047
S11305E00000089595B1946095B99BB1282F30E02F
S11305F0220F331F220F331F9370292B2BB995B170
S11306009C7F8295869586958370892B846085B9B5
S113061085B1886085B98FE99FE00197F1F700C043
S1130620000085B1877F85B98FE99FE00197F1F7D5
S113063000C0000008950F931F93CF93DF938C01A4
S1130640C0E0D0E003C00E94F2022196F801EC0F52
S1130650FD1F80818111F7CFDF91CF911F910F9101
S11306600895611102C0805805C0613011F48054AE
S113067001C080E00E949902089581E00E949902DD
S11306808FE39FE10197F1F700C000000895809186
S1130690E8019091E901A091EA01B091EB01019682
S11306A0A11DB11D8093E8019093E901A093EA0193
S11306B0B093EB0108951F93CF93DF93EB01880F61
S11306C00E941401182F0E94D900183189F419824C
S11306D081E08A838091E8019091E901A091EA0187
S11306E0B091EB018B839C83AD83BE8381E009C011
S11306F089818F5F8983863018F01A8280E001C077
S113070080E0DF91CF911F9108950F931F93CF93B2
S1130710DF93D82F8B010E948902892B59F00E9404
S113072093022FEF80E792E0215080409040E1F760
S113073000C00000C0E010C0B8018D2F0E945B0310
S113074081110CC02FEF81EE94E021508040904045
S1130750E1F700C00000CF5FC33070F3DF91CF91A9
S11307601F910F910895CF93DF93809109018823FE
S113077009F48EC0C0E079C067E071E080E20E94B5
S11307805B0381110BC0CF5F2FEF89EF90E0215005
S113079080409040E1F700C0000067C080E40E9400
S11307A01401883191F00E94D900E7E0F1E08081E2
S11307B08F5F8083CF5F2FEF89EF90E021508040DF
S11307C09040E1F700C0000050C083E40E9456014D
S11307D0883291F00E94D900E7E0F1E080818F5FD8
S11307E08083CF5F2FEF89EF90E0215080409040CD
S11307F0E1F700C0000039C00E94D9002FEF81EE5C
S113080094E0215080409040E1F700C0000081E472
S11308100E941401803491F00E94D900E7E0F1E0D5
S113082080818F5F8083CF5F2FEF89EF90E021502D
S113083080409040E1F700C0000017C00E94020110
S1130840D82F0E94D900D43030F4E7E0F1E01082D0
S113085011828D2F20C0CF5F2FEF89EF90E02150C0
S113086080409040E1F700C00000C23008F484CF1B
S1130870E7E0F1E080818F5F808381818F5F8183F6
S11308808B3040F0BF0180E20E9485038FEF03C0EC
S11308908FEF01C08FEFDF91CF910895CF92DF9258
S11308A0EF92FF921F93CF93DF93CDB7DEB72897D4
S11308B00FB6F894DEBF0FBECDBF8091020188232E
S11308C009F4ADC010E091C060E071E080E30E94E3
S11308D05B0381110BC01F5F2FEF89EF90E0215064
S11308E080409040E1F700C000007FC080E60E9495
S11308F01401883191F00E94D900E0E0F1E0808198
S11309008F5F80831F5F2FEF89EF90E0215080403D
S11309109040E1F700C0000068C087E50E945601DE
S1130920883291F00E94D900E0E0F1E080818F5F8D
S113093080831F5F2FEF89EF90E02150804090402B
S1130940E1F700C0000051C00E94D9002FEF80E7FA
S113095092E0215080409040E1F700C0000024E084
S1130960AE014F5F5F4F60E080E30E94F501843089
S113097091F512C0822F90E0E1E0F0E0EC0FFD1F52
S1130980E80FF91F3081E5E0F0E0EC0FFD1FE80F00
S1130990F91F30832F5F01C020E0243058F3CD804D
S11309A0DE80EF80F88420E030E0A901C701B601C1
S11309B00E94640988237CF020E030E04AE754E494
S11309C0C701B6010E94DC0888232CF4E0E0F1E0C2
S11309D01082118235C01F5F2FEF89EF90E0215004
S11309E080409040E1F700C00000123008F46CCF62
S11309F0E0E0F1E080818F5F808381818F5F81837C
S1130A008B30B0F0BF0180E30E9485030F2EC12C10
S1130A10D12CF0E8EF2EFFEBFF2EF02D11C00F2E9E
S1130A20C12CD12CF0E8EF2EFFEBFF2EF02D08C0E7
S1130A300F2EC12CD12CF0E8EF2EFFEBFF2EF02D62
S1130A40C701B60128960FB6F894DEBF0FBECDBF1E
S1130A50DF91CF911F91FF90EF90DF90CF90089599
S1130A60CF93DF930E941E082FEF80E792E021507E
S1130A7080409040E1F700C000000E943808EC017B
S1130A80019659F00E94D908811107C0EEE0F1E007
S1130A90108211828C2F9D2F23C0EEE0F1E0808123
S1130AA08F5F808381818F5F81838630A0F00E9475
S1130AB093028FEF91EE24E0815090402040E1F7C3
S1130AC000C000000E94E907882341F010920F0142
S1130AD080E090E005C080E090E002C080E090E01B
S1130AE0DF91CF910895CF92DF92EF92FF9260E071
S1130AF080E00E9431038DE291E00E941B0361E0DB
S1130B0080E00E9431038091F0019091F1019C01F9
S1130B10215031092F3C374098F49F938F938EE3F3
S1130B2091E09F938F9386EF91E09F938F930E9420
S1130B309A090F900F900F900F900F900F9009C08B
S1130B4086E0E4E4F1E0A6EFB1E001900D928A952D
S1130B50E1F786EF91E00E941B0361E087E00E94C9
S1130B603103C090EC01D090ED01E090EE01F090E3
S1130B70EF0120E030E0A901C701B6010E94640939
S1130B8088230CF120E030EC49E754E4C701B601B6
S1130B900E94DC088823BCF4C701B6010E94E10866
S1130BA07F936F938AE491E09F938F9386EF91E014
S1130BB09F938F930E949A090F900F900F900F901C
S1130BC00F900F9009C085E0EFE4F1E0A6EFB1E0EB
S1130BD001900D928A95E1F786EF91E00E941B0344
S1130BE061E08CE00E9431038091F2018230A9F02F
S1130BF028F4882341F0813059F01EC0833091F0ED
S1130C008F3FA9F019C084E591E00E941B0318C02E
S1130C1089E591E00E941B0313C08EE591E00E94D8
S1130C201B030EC083E691E00E941B0309C08FE4FE
S1130C3091E00E941B0304C088E691E00E941B031C
S1130C4080911001882341F080910901882321F0CB
S1130C508091020181112FC060E080E00E94310385
S1130C602091020190910901809110011F922F930C
S1130C701F929F931F928F938DE691E09F938F9382
S1130C8086EF91E09F938F930E949A0986EF91E0FB
S1130C900E941B038FEF93ED20E38150904020408E
S1130CA0E1F700C000008DB79EB70A960FB6F8941E
S1130CB09EBF0FBE8DBFFF90EF90DF90CF90089541
S1130CC00E94C10260EA76E881E090E00E947B0025
S1130CD00E943D0360E080E00E94310388E791E0D8
S1130CE00E941B0361E080E00E9431038BE891E0E5
S1130CF00E941B032FEF87EA91E621508040904029
S1130D00E1F700C000000E943D0360E080E00E9423
S1130D10310388E991E00E941B030E94E9078823BC
S1130D2061F061E080E00E94310388EA91E00E9472
S1130D301B0381E0809310010AC061E080E00E94FF
S1130D40310384EB91E00E941B03109210012FEFFA
S1130D508DE399E4215080409040E1F700C0000009
S1130D600E943D0360E080E00E94310383EC91E047
S1130D700E941B0367E071E080E20E945B0360E075
S1130D8071E080E30E945B0361E080E00E94310334
S1130D9090910201809109011F929F931F928F935A
S1130DA085ED91E09F938F9386EF91E09F938F93CE
S1130DB00E949A0986EF91E00E941B032FEF87EAB5
S1130DC091E6215080409040E1F700C000000E946D
S1130DD03D038DB79EB708960FB6F8949EBF0FBE1D
S1130DE08DBFC0E00E9447030E9430059093F1013B
S1130DF08093F0018BEAC89F812D11248695982F4A
S1130E00990F890FC81306C00E94B3038F3F11F0D6
S1130E108093F2018DECC89F812D112486958695CF
S1130E20982F990F990F890FC81313C00E944E046D
S1130E306B017C0120E030E0A9010E946409882351
S1130E4044F0C092EC01D092ED01E092EE01F092F8
S1130E50EF018DECC89F812D112482958F70880F2E
S1130E60880F982F990F990F890FC81312C080917A
S1130E700901811105C067E071E080E20E945B0313
S1130E8080910201811105C060E071E080E30E945D
S1130E905B030E947305CF5FCC3308F0C0E09FEF83
S1130EA022E587E0915020408040E1F700C0000037
S1130EB099CFCF93DF93D82FC0E012C06D2F89E272
S1130EC00E94AE018F3F11F4C23019F41092F40164
S1130ED012C0CF5F83EC99E00197F1F700C00000E6
S1130EE0C33060F38091F4018F5F8093F40182E05A
S1130EF08093F5018FEFDF91CF9108951F93CF93E6
S1130F00DF93D82F162FC0E01BC0412F6D2F89E22D
S1130F100E946B0181110DC08D2F0E945907181773
S1130F2011F0D11106C01092F4011092F50181E084
S1130F3012C0CF5F83EC99E00197F1F700C0000085
S1130F40C33018F38091F4018F5F8093F40182E041
S1130F508093F50180E0DF91CF911F9108951F9355
S1130F60CF93DF93CDB7DEB768970FB6F894DEBFA3
S1130F700FBECDBF88E1E5E1F1E0DE0111960190FD
S1130F800D928A95E1F710E017C0E12FF0E0EE0F23
S1130F90FF1F81E090E08C0F9D1FE80FF91F618116
S1130FA080810E947E07882351F089EF90E00197A9
S1130FB0F1F700C000001F5F1C3038F381E0689631
S1130FC00FB6F894DEBF0FBECDBFDF91CF911F9156
S1130FD00895CF931092F5011092F4011092F30149
S1130FE0C0E022C083ED90E30197F1F700C0000058
S1130FF080EC0E9459078E3E61F40E94AF0788235B
S113100041F081E08093F3011092F4011092F50114
S113101013C0CF5FC33040F40E94930287EA91E685
S11310200197F1F700C00000C330E0F281E0809343
S1131030F5011092F30180E0CF9108958091F301BE
S1131040811104C00E94E907882341F061E083E133
S11310500E947E0761E080E00E947E0708958091EF
S1131060F301882321F084E10E94590781700895D7
S11310700F931F93CF93DF9300D0CDB7DEB71092B9
S1131080F5018091F301811132C081E08093F50173
S11310908FEF9FEF87C089EF90E00197F1F700C0D1
S11310A000000F5F1F4F980136952795ABE7B4E119
S11310B00E948B099695879542E3489F9001499F2A
S11310C0300D112402171307A1F480EC0E94590774
S11310D08E3E79F08F3F69F082E08093F501809134
S11310E0F4018F5F8093F4018FEF9FEF5BC000E00A
S11310F010E00E942F08811103C0083C110558F22A
S1131100083C110580F083E08093F5018091F4019F
S11311108F5F8093F401863008F442C01092F3018B
S11311208FEF9FEF3FC022E0AE014F5F5F4F6EE154
S113113089E20E94F501823009F5898190E0982FB7
S113114088272A81822B8C010197803D974018F4CF
S11311501092F4011EC0013D174028F01092F401D2
S113116000ED17E016C084E08093F5018091F4014E
S11311708F5F8093F4018FEF9FEF14C082E0809320
S1131180F5018091F4018F5F8093F4018FEF9FEF5D
S113119009C061E083E10E947E07802F912F02C085
S11311A08FEF9FEF0F900F90DF91CF911F910F91D1
S11311B008958091F50108950E94170908F481E0CB
S11311C008950E94E8086894B1110C945E0908958A
S11311D00E94430988F09F5798F0B92F9927B75177
S11311E0B0F0E1F0660F771F881F991F1AF0BA95C7
S11311F0C9F714C0B13091F00E945D09B1E00895BF
S11312000C945D09672F782F8827B85F39F0B93FB0
S1131210CCF3869577956795B395D9F73EF4909579
S11312208095709561957F4F8F4F9F4F0895990FCB
S11312300008550FAA0BE0E8FEEF16161706E8079C
S1131240F907C0F012161306E407F50798F0621BBD
S1131250730B840B950B39F40A2661F0232B242B92
S1131260252B21F408950A2609F4A140A6958FEFB1
S1131270811D811D089557FD9058440F551F59F045
S11312805F3F71F04795880F97FB991F61F09F3F6F
S113129079F087950895121613061406551FF2CF98
S11312A04695F1DF08C0161617061806991FF1CFE8
S11312B086957105610508940895E894BB2766270F
S11312C07727CB0197F908950E94170908F48FEF47
S11312D00895A1E21A2EAA1BBB1BFD010DC0AA1F73
S11312E0BB1FEE1FFF1FA217B307E407F50720F08B
S11312F0A21BB30BE40BF50B661F771F881F991F06
S11313001A9469F760957095809590959B01AC014E
S1131310BD01CF010895A29FB001B39FC001A39F57
S1131320700D811D1124911DB29F700D811D11241A
S1131330911D0895AEE0B0E0E0EAF9E00C945B0C96
S11313400D891E8986E08C831A8309838FEF9FE7BA
S11313509E838D83AE01475E5F4F6F89788DCE018A
S113136001960E94BC09EF81F885E00FF11F1082FD
S11313702E96E4E00C94770CABE0B0E0E2ECF9E0FC
S11313800C944D0C6C017B018A01FC0117821682BE
S1131390838181FFCCC1CE0101963C01F60193818A
S11313A0F70193FD859193FF81917F01882309F4CF
S11313B0BAC1853239F493FD859193FF81917F0100
S11313C0853229F4B60190E00E94B30BE7CF912C4B
S11313D0212C312CFFE1F315D8F08B3279F038F45D
S11313E0803279F08332A1F4232D20611DC08D3227
S11313F061F0803369F4232D216016C0832D82604F
S1131400382EE32DE4603E2E2AC0F32DF8601DC073
S113141037FC2DC020ED280F2A3040F08E32B9F46D
S113142036FC81C1232D2064322E19C036FE06C03D
S11314308AE0989E200D1124922E11C0EAE02E9E7F
S1131440200D1124222EF32DF0623F2E08C08C367D
S113145021F4832D8068382E02C0883641F4F701C8
S113146093FD859193FF81917F018111B3CF982FD3
S11314709F7D9554933028F40C5F1F4F9FE399830D
S11314800DC0833631F0833771F0833509F059C0CC
S113149021C0F801808189830E5F1F4F88248394C3
S11314A0912C530113C02801F2E04F0E511CF80196
S11314B0A080B18036FE03C0692D70E002C06FEFDA
S11314C07FEFC5010E94A80B4C018201F32DFF7729
S11314D03F2E16C0280122E0420E511CF801A080C4
S11314E0B18036FE03C0692D70E002C06FEF7FEF5C
S11314F0C5010E949D0B4C01F32DF0683F2E820123
S113150033FC1BC0822D90E088169906B0F4B60116
S113151080E290E00E94B30B2A94F4CFF50137FCEB
S1131520859137FE81915F01B60190E00E94B30B73
S113153021102A9421E0821A91088114910471F7F0
S1131540E8C0843611F0893641F5F80137FE07C04A
S113155060817181828193810C5F1F4F08C060811B
S11315607181072E000C880B990B0E5F1F4FF32D12
S1131570FF763F2E97FF09C09095809570956195F1
S11315807F4F8F4F9F4FF0683F2E2AE030E0A3013A
S11315900E94EF0B882E861845C0853731F4232D21
S11315A02F7EB22E2AE030E025C0932D997FB92EEC
S11315B08F36C1F018F4883579F0B5C0803719F04A
S11315C0883721F0B0C0E92FE061BE2EB4FE0DC013
S11315D0FB2DF460BF2E09C034FE0AC0292F2660FB
S11315E0B22E06C028E030E005C020E130E002C0A1
S11315F020E132E0F801B7FE07C060817181828189
S113160093810C5F1F4F06C06081718180E090E080
S11316100E5F1F4FA3010E94EF0B882E8618FB2D2F
S1131620FF773F2E36FE0DC0232D2E7FA22E891468
S113163058F434FE0BC032FC09C0832D8E7EA82ED4
S113164005C0B82CA32C03C0B82C01C0B92CA4FE2F
S11316500FC0FE01E80DF11D8081803321F49A2D25
S1131660997EA92E09C0A2FE06C0B394B39404C007
S11316708A2D867809F0B394A3FC11C0A0FE06C09D
S1131680B21488F4280C922C9B180EC0B21460F487
S1131690B60180E290E00E94B30BB394F7CFB2148A
S11316A018F42B1802C0982C212CA4FE10C0B601EB
S11316B080E390E00E94B30BA2FE17C0A1FC03C01C
S11316C088E790E002C088E590E0B6010CC08A2D5E
S11316D0867859F0A1FE02C08BE201C080E2A7FC2B
S11316E08DE2B60190E00E94B30B891438F4B60180
S11316F080E390E00E94B30B9A94F7CF8A94F301AD
S1131700E80DF11D8081B60190E00E94B30B8110B9
S1131710F5CF222009F442CEB60180E290E00E9487
S1131720B30B2A94F6CFF6018681978102C08FEF1E
S11317309FEF2B96E2E10C94690CFC01059061503B
S113174070400110D8F7809590958E0F9F1F0895D3
S1131750FC016150704001900110D8F7809590957C
S11317608E0F9F1F08950F931F93CF93DF93FB0159
S1131770238121FD03C08FEF9FEF2CC022FF16C0F1
S113178046815781248135814217530744F4A0814F
S1131790B1819D012F5F3F4F318320838C9326813C
S11317A037812F5F3F4F3783268314C08B01EC01B1
S11317B0FB010084F185E02D0995892BE1F6D80120
S11317C016968D919C911797019617969C938E93DC
S11317D01697CE01DF91CF911F910F910895FA01D1
S11317E0AA27283051F1203181F1E8946F936E7F5C
S11317F06E5F7F4F8F4F9F4FAF4FB1E03ED0B4E04D
S11318003CD0670F781F891F9A1FA11D680F791F8D
S11318108A1F911DA11D6A0F711D811D911DA11D9E
S113182020D009F468943F912AE0269F11243019AE
S1131830305D3193DEF6CF010895462F4770405D49
S11318404193B3E00FD0C9F7F6CF462F4F70405DF8
S11318504A3318F0495D31FD4052419302D0A9F753
S1131860EACFB4E0A6959795879577956795BA954D
S1131870C9F700976105710508959B01AC010A2E13
S113188006945795479537952795BA95C9F7620FEA
S1131890731F841F951FA01D08952F923F924F928E
S11318A05F926F927F928F929F92AF92BF92CF92EC
S11318B0DF92EF92FF920F931F93CF93DF93CDB7F5
S11318C0DEB7CA1BDB0B0FB6F894DEBF0FBECDBF6D
S11318D009942A88398848885F846E847D848C843E
S11318E09B84AA84B984C884DF80EE80FD800C8147
S11318F01B81AA81B981CE0FD11D0FB6F894DEBF2A
S10F19000FBECDBFED010895F894FFCF99
S113190C00000100000000000001000000000000C5
S113191C01000000008001FF010000913C0001FF68
S113192C008000600061FF620063FF00024E766C71
S113193C3A202057673A202020436C723A002575D0
S113194C6D6D20004552522020002564672000450F
S113195C525220004E4F4E450052454420004752EF
S113196C4E2000424C5520003F3F3F20004445563A
S113197C3A2564256425640053697374656D61208C
S113198C496E647573747269616C00496E6963693C
S113199C616E646F2E2E2E00496E697420564C3580
S11319AC334C30582E2E2E00564C35334C30582098
S11319BC4F4B2100564C35334C3058204552524F26
S11319CC522100446574656374616E646F204932FE
S11319DC432E2E2E005443533A25642042414E4448
S10919EC413A25640000ED
S9030000FC
