S00F0000505255454241532E7372656303
S11300000C9434000C9451000C9451000C94510045
S11300100C9451000C9451000C9451000C94510018
S11300200C9451000C9451000C9451000C94510008
S11300300C9451000C9451000C9451000C945100F8
S11300400C9451000C9451000C9451000C945100E8
S11300500C9451000C9451000C9451000C945100D8
S11300600C945D000C94510011241FBECFEFD8E016
S1130070DEBFCDBF11E0A0E0B1E0E2E1FDE002C0EF
S113008005900D92A83CB107D9F721E0A8ECB1E0A6
S113009001C01D92A23EB207E1F70E94BA000C947F
S11300A087060C94000097B19F7C97B9880F8093C2
S11300B0BA0085E48093BC0008951F920F920FB696
S11300C00F9211248F938091B900887F883A61F14F
S11300D040F48038A1F0803A09F1803609F03FC03D
S11300E007C0803C81F1883CA1F1883BC1F527C061
S11300F081E08093C90184EC8093BC0035C0809179
S1130100BB008093CA018091CA01833419F481E051
S11301108093C80184EC8093BC0026C084EC809357
S1130120BC001092C90120C081E08093C901809174
S1130130CB018093BB0084EC8093BC0015C084EC9D
S11301408093BC0011C084EC8093BC001092C90160
S11301500BC084EC8093BC001092C90105C084ECF0
S11301608093BC001092C9018F910F900FBE0F9025
S11301701F9018950E9419030E94B80180E20E9402
S113018053000E948F018AE50E94A501789480E0C3
S113019091E00E942C0381E291E00E942C032FEF56
S11301A087EA91E6215080409040E1F700C00000CA
S11301B00E94140280E391E00E942C038091C80104
S11301C0882309F454C08091C901811150C0109250
S11301D0C80188E391E00E942C0388ED91E00E941D
S11301E0850266E671E088ED91E00E949403892B14
S11301F039F481E08093CB0180E00E94A50121C005
S11302006BE671E088ED91E00E949403EC01892B88
S113021041F061E771E088ED91E00E949403892B3D
S113022059F4CD2B11F482E001C083E08093CB011B
S113023084EB0E94A50105C01092CB018AE50E94BF
S1130240A50186E791E00E942C0388ED91E00E94CD
S11302502C0388E891E00E942C038091CB0190E06C
S11302600E94390383E991E00E942C034EC08091DF
S1130270C90181114AC088ED91E00E94850261E7BD
S113028071E088ED91E00E949403892B29F480E0C9
S11302900E94A501C1E01EC06BE671E088ED91E00B
S11302A00E949403EC01892B41F066E671E088ED2D
S11302B091E00E949403892B49F4CD2B11F4C2E000
S11302C001C0C3E084EB0E94A50104C08AE50E943A
S11302D0A501C0E08091CB01C817B9F0C093CB0150
S11302E086E991E00E942C0388ED91E00E942C03A2
S11302F088E891E00E942C038091CB0190E00E9459
S1130300390383E991E00E942C032FEF80E792E008
S1130310215080409040E1F700C000004FCF84B1ED
S1130320826084B982E8809380008AE180938100AE
S11303308FE39CE9909387008093860088EB9BE091
S113034090938900809388000895282F30E0A0EAD4
S1130350BFE00E94850324EB30E040E050E00E94BF
S1130360630328513C4F30938900209388000895FB
S11303708AB184698AB984B1816084B984B18F7E79
S113038084B98BB180688BB985B18E7F85B90895A6
S11303900F931F93882321F08BB180618BB903C025
S11303A08BB18F7E8BB9662321F08BB184608BB9BE
S11303B003C08BB18B7F8BB983ED90E30197F1F789
S11303C000C0000080E090E0DC0160E070E009C063
S11303D01C9B04C01C99FECF6F5F7F4F0196A11D2B
S11303E0B11D803A06E8900701E0A007B10580F34B
S11303F0CB01A0E0B0E0880F991FAA1FBB1FAC017E
S1130400BD01440F551F661F771F440F551F661FFC
S1130410771F8C019D01040F151F261F371FC9016B
S1130420B8011F910F9108954F925F926F927F923E
S11304308F929F92AF92BF92CF92DF92EF92FF92F0
S1130440CF93C0E0C12CD12C7601812C912C540186
S1130450412C512C320119C060E080E00E94C80197
S1130460460E571E681E791E61E080E00E94C80196
S1130470C60ED71EE81EF91E61E081E00E94C80185
S1130480860E971EA81EB91ECF5FCA3028F3C3017B
S1130490B2012AE030E040E050E00E946303209380
S11304A0D4013093D5014093D6015093D701C501AF
S11304B0B4012AE030E040E050E00E94630320935E
S11304C0D0013093D1014093D2015093D301C7019D
S11304D0B6012AE030E040E050E00E94630320933C
S11304E0CC013093CD014093CE015093CF01CF91F5
S11304F0FF90EF90DF90CF90BF90AF909F908F9040
S11305007F906F905F904F9008958F929F92AF92DB
S1130510BF92CF92DF92EF92FF920F931F93CF93EC
S1130520DF93EC0160E080E00E94C8016B017C0174
S113053061E080E00E94C8014B015C0161E081E060
S11305400E94C8010091D4011091D5012091D601D7
S11305503091D701025E1F4F2F4F3F4FC016D10677
S1130560E206F30658F50091D0011091D1012091D3
S1130570D2013091D301025E1F4F2F4F3F4F6017BE
S1130580710782079307D0F40091CC011091CD013B
S11305902091CE013091CF01025E1F4F2F4F3F4F6C
S11305A080169106A206B30648F488E0EEEAF1E06C
S11305B0DE0101900D928A95E1F72EC06C157D0540
S11305C08E059F0570F48C149D04AE04BF0448F49A
S11305D085E0E6E6F1E0DE0101900D928A95E1F70F
S11305E01BC0C616D706E806F90670F486169706E9
S11305F0A806B90648F486E0EBE6F1E0DE010190D6
S11306000D928A95E1F708C085E0E1E7F1E0DE01AB
S113061001900D928A95E1F7DF91CF911F910F918F
S1130620FF90EF90DF90CF90BF90AF909F908F900E
S113063008951092C50087E68093C40088E18093F2
S1130640C10086E08093C20008959091C00095FF98
S1130650FCCF8093C6000895CF93DF93EC0103C0D1
S113066021960E94250388818111FACFDF91CF91D1
S113067008950F931F93CF93DF9300D000D000D041
S1130680CDB7DEB79F938F9385EC91E09F938F93C3
S11306908E010F5F1F4F1F930F930E949D03C8018C
S11306A00E942C030F900F900F900F900F900F90BB
S11306B026960FB6F894DEBF0FBECDBFDF91CF9163
S11306C01F910F910895A1E21A2EAA1BBB1BFD01D5
S11306D00DC0AA1FBB1FEE1FFF1FA217B307E4071D
S11306E0F50720F0A21BB30BE40BF50B661F771F75
S11306F0881F991F1A9469F7609570958095909555
S11307009B01AC01BD01CF010895A29FB001B39F2D
S1130710C001A39F700D811D1124911DB29F700D06
S1130720811D1124911D0895FB01DC018D9101901F
S113073080190110D9F3990B0895AEE0B0E0E3EA13
S1130740F3E00C945E060D891E8986E08C831A837F
S113075009838FEF9FE79E838D83AE01475E5F4FD2
S11307606F89788DCE0101960E94BF03EF81F885D1
S1130770E00FF11F10822E96E4E00C947A06ABE0B1
S1130780B0E0E5ECF3E00C9450066C017B018A01C7
S1130790FC0117821682838181FFCCC1CE010196B0
S11307A03C01F6019381F70193FD859193FF8191BB
S11307B07F01882309F4BAC1853239F493FD859108
S11307C093FF81917F01853229F4B60190E00E9464
S11307D0B605E7CF912C212C312CFFE1F315D8F08D
S11307E08B3279F038F4803279F08332A1F4232DFE
S11307F020611DC08D3261F0803369F4232D2160A6
S113080016C0832D8260382EE32DE4603E2E2AC06C
S1130810F32DF8601DC037FC2DC020ED280F2A30C1
S113082040F08E32B9F436FC81C1232D2064322E7F
S113083019C036FE06C08AE0989E200D1124922E1F
S113084011C0EAE02E9E200D1124222EF32DF06219
S11308503F2E08C08C3621F4832D8068382E02C0C8
S1130860883641F4F70193FD859193FF81917F01CF
S11308708111B3CF982F9F7D9554933028F40C5F4A
S11308801F4F9FE399830DC0833631F0833771F096
S1130890833509F059C021C0F801808189830E5F36
S11308A01F4F88248394912C530113C02801F2E034
S11308B04F0E511CF801A080B18036FE03C0692D93
S11308C070E002C06FEF7FEFC5010E94AB054C01E1
S11308D08201F32DFF773F2E16C0280122E0420E3D
S11308E0511CF801A080B18036FE03C0692D70E070
S11308F002C06FEF7FEFC5010E94A0054C01F32DEC
S1130900F0683F2E820133FC1BC0822D90E08816D4
S11309109906B0F4B60180E290E00E94B6052A94EC
S1130920F4CFF50137FC859137FE81915F01B60163
S113093090E00E94B60521102A9421E0821A9108C1
S11309408114910471F7E8C0843611F0893641F5B9
S1130950F80137FE07C060817181828193810C5F49
S11309601F4F08C060817181072E000C880B990B02
S11309700E5F1F4FF32DFF763F2E97FF09C0909512
S11309808095709561957F4F8F4F9F4FF0683F2EF4
S11309902AE030E0A3010E94F205882E861845C0A3
S11309A0853731F4232D2F7EB22E2AE030E025C086
S11309B0932D997FB92E8F36C1F018F4883579F0CC
S11309C0B5C0803719F0883721F0B0C0E92FE06155
S11309D0BE2EB4FE0DC0FB2DF460BF2E09C034FE44
S11309E00AC0292F2660B22E06C028E030E005C0D8
S11309F020E130E002C020E132E0F801B7FE07C098
S1130A0060817181828193810C5F1F4F06C0608178
S1130A10718180E090E00E5F1F4FA3010E94F205F8
S1130A20882E8618FB2DFF773F2E36FE0DC0232D12
S1130A302E7FA22E891458F434FE0BC032FC09C058
S1130A40832D8E7EA82E05C0B82CA32C03C0B82CF1
S1130A5001C0B92CA4FE0FC0FE01E80DF11D808178
S1130A60803321F49A2D997EA92E09C0A2FE06C0D6
S1130A70B394B39404C08A2D867809F0B394A3FC8C
S1130A8011C0A0FE06C0B21488F4280C922C9B1846
S1130A900EC0B21460F4B60180E290E00E94B60584
S1130AA0B394F7CFB21418F42B1802C0982C212C4D
S1130AB0A4FE10C0B60180E390E00E94B605A2FE39
S1130AC017C0A1FC03C088E790E002C088E590E06D
S1130AD0B6010CC08A2D867859F0A1FE02C08BE2C3
S1130AE001C080E2A7FC8DE2B60190E00E94B60549
S1130AF0891438F4B60180E390E00E94B6059A9414
S1130B00F7CF8A94F301E80DF11D8081B60190E0DE
S1130B100E94B6058110F5CF222009F442CEB60119
S1130B2080E290E00E94B6052A94F6CFF601868111
S1130B30978102C08FEF9FEF2B96E2E10C946C0635
S1130B40FC010590615070400110D8F78095909594
S1130B508E0F9F1F0895FC01615070400190011099
S1130B60D8F7809590958E0F9F1F08950F931F932C
S1130B70CF93DF93FB01238121FD03C08FEF9FEF10
S1130B802CC022FF16C0468157812481358142172B
S1130B90530744F4A081B1819D012F5F3F4F3183FE
S1130BA020838C93268137812F5F3F4F37832683A1
S1130BB014C08B01EC01FB010084F185E02D099543
S1130BC0892BE1F6D80116968D919C911797019681
S1130BD017969C938E931697CE01DF91CF911F9118
S1130BE00F910895FA01AA27283051F1203181F19B
S1130BF0E8946F936E7F6E5F7F4F8F4F9F4FAF4F21
S1130C00B1E03ED0B4E03CD0670F781F891F9A1F33
S1130C10A11D680F791F8A1F911DA11D6A0F711DE7
S1130C20811D911DA11D20D009F468943F912AE0F3
S1130C30269F11243019305D3193DEF6CF010895DB
S1130C40462F4770405D4193B3E00FD0C9F7F6CF0C
S1130C50462F4F70405D4A3318F0495D31FD4052D4
S1130C60419302D0A9F7EACFB4E0A695979587956A
S1130C7077956795BA95C9F7009761057105089549
S1130C809B01AC010A2E06945795479537952795F5
S1130C90BA95C9F7620F731F841F951FA01D08958D
S1130CA02F923F924F925F926F927F928F929F9278
S1130CB0AF92BF92CF92DF92EF92FF920F931F9366
S1130CC0CF93DF93CDB7DEB7CA1BDB0B0FB6F89417
S1130CD0DEBF0FBECDBF09942A88398848885F8457
S1130CE06E847D848C849B84AA84B984C884DF80C8
S1130CF0EE80FD800C811B81AA81B981CE0FD11DAC
S1130D000FB6F894DEBF0FBECDBFED010895F89481
S1050D10FFCF0F
S1130D123D3D3D2054435333323030202B20536524
S1130D2272766F20436F6E74726F6C203D3D3D0A84
S1130D320043616C696272616E646F2E2E2E0A002A
S1130D424C6973746F210A00436F6D616E646F2086
S1130D5227432720726563696269646F202D2041ED
S1130D62637475616C697A616E646F20636F6C6F12
S1130D72722E2E2E0A00524F4A4F005645524445B7
S1130D8200415A554C00436F6C6F72206465746560
S1130D92637461646F3A20002028436F6469676F4B
S1130DA23A2000290A004E7565766F20636F6C6FD6
S1130DB2722064657465637461646F3A20004E49FD
S1130DC24E47554E4F0025733A2025642E25303266
S10B0DD264560D0A00257500AA
S9030000FC
